:020000040800F2
:1040000000040020014300080343000802430008A5
:10401000024300080243000802430008024300086C
:10402000024300080243000802430008F1F10008BF
:10403000024300080243000802430008024300084C
:10404000024300080243000802430008024300083C
:104050000243000802430008913A0108F13A0108BE
:10406000613B0108D13B0108413C0108B111010845
:10407000F11101083112010871120108B112010891
:10408000F11201083113010802430008E110010890
:10409000011101082111010841110108B13C010879
:1040A00002430008024300080243000802430008DC
:1040B00021F90008024300080243000802430008F7
:1040C00002430008024300080243000802430008BC
:1040D000024300080243000891FC0008B1FC0008FC
:1040E000F13D0108024300080243000802430008B2
:1040F000024300080243000802430008711301084C
:1041000002430008012C0108024300080243000892
:10411000024300080243000802430008024300086B
:10412000B1130108F11301083114010871140108D9
:10413000B1140108024300080243000802430008CA
:1041400002430008024300080243000861210108FD
:10415000F114010831150108711501080243000826
:10416000024300080243000802430008024300081B
:10417000024300080243000802430008024300080B
:1041800002430008024300080243000802430008FB
:1041900002430008024300080243000802430008EB
:1041A00002430008024300080243000802430008DB
:1041B00002430008024300080243000802430008CB
:1041C00002430008024300080243000802430008BB
:1041D00002430008024300080243000802430008AB
:1041E00072B6384880F30888374880F30988374822
:1041F0004EF60851CEF20001086040F20000CCF209
:1042000000004EF63471CEF200010860BFF34F8F0C
:10421000BFF36F8F40F20000C0F2F0004EF68851FD
:10422000CEF200010860BFF34F8FBFF36F8F4FF0E6
:104230000000E1EE100A4EF63C71CEF2000108607B
:10424000062080F31488BFF36F8F10F071FF0BF01E
:10425000EFFD1F481F491B4A91423CBF41F8040B28
:10426000FAE71D49184A91423CBF41F8040BFAE7AE
:104270001A491B4A1B4B9A423EBF51F8040B42F8A5
:10428000040BF8E700201849184A91423CBF41F856
:10429000040BFAE710F064FF10F052FF144C154DB8
:1042A000AC4203DA54F8041B8847F9E70AF0F8FD3A
:1042B000114C124DAC4203DA54F8041B8847F9E75D
:1042C00010F046BF00040020000800200040000855
:1042D000555555550000002000040020F8ED010858
:1042E000000800207C1000208010002040300020BA
:1042F000E0410008E0410008E0410008E04100081A
:104300006EE7FFE7FEE7C0462DE9F04F2DED108A7E
:10431000C1F80CD0C3689D46BDEC108ABDE8F08F93
:10432000002383F311882846A04700200CF078FC76
:104330000CF006FB00DFFEE770B44C1E4A2C2CD8B4
:10434000DFE804F03C3C3C3C2B2B2B2B26263C2668
:1043500026262626262626262626262B27272727F4
:10436000272727273C26262626262B26273D3C2B9B
:104370003C27273D2B2B26263C3C3C3C3C263C3C0A
:10438000263C2B2B2626262B2B2B2626263C3C0098
:10439000CAB144698569AC4202DB002070BC704739
:1043A00004EB440506690134AD00446174190CD076
:1043B00071556260A360204670BC70471AB1002B33
:1043C000E7D11846EAE71046E8E72046E6E700BFEF
:1043D00030B443698469A34209DA03EB43040569F5
:1043E0000133A40043612B1901D001B112B900209F
:1043F00030BC70470020285559609A60184630BC80
:10440000704700BFF8B5C368154604460E461A78D3
:104410000F4616E0562A24D04B2A2FD1236BE16099
:10442000002D03F10603236314BF1E211B2100226C
:1044300013462046FFF780FF3860F0B1E3681A7832
:10444000071D722A03F10101E4D1226B002D03F153
:10445000010302F10902E360226314BF1C21192148
:10446000E5E7226B002D03F1010302F10902E3608D
:10447000226314BF1D211A21D9E7F8BDADB9462A20
:1044800013D1B74211D01D201E211C2207E01B2B87
:104490000DD0192B00D132700436B74205D03668E2
:1044A00033781A2BF3D13070F6E73846F8BD317007
:1044B000F2E700BFC3680A46197852290BD04F298A
:1044C00001D010467047016B013303310163C360B3
:1044D0002021002330E7016B013302310163C36007
:1044E0001F21002328E700BFC2681378532B01D097
:1044F000002070472DE9F041531CC3605378EBB1A5
:10450000931CC36054785F2C26D10023026A934227
:1045100011D2826AC1690132826251F82300BDE87A
:10452000F0810121424B03F1C4051A78A2423CD02C
:104530001C33AB42F9D10020BDE8F0811C468368F2
:104540001B07EED40029EDD0C3681978433901293F
:104550008CBF00210121E5E7A4F13005EBB2092B66
:1045600060D800210DE0303B9942E4D8C26814784D
:10457000511C1CB1C16014785F2C14D0A4F130051B
:104580001946EDB2A4F1410201EBC103092DD2B2EB
:1045900004EB8303E7D9192ACDD801EBC10204EB60
:1045A0008203373BE0E70133B0E75A69002A34D091
:1045B00044698569D3F818C0AC422CDA04EB440690
:1045C000D0F810E0B60001341EEB0607446127D096
:1045D0004FF018080EF806803E467A60C7F808C00B
:1045E000C662A9B1DE681969026BA5420A4402637A
:1045F000A1DD04EB44020569631C92004361AB1822
:1046000099D01820A8545E6099601846BDE8F081E2
:104610005E689968E8E70026E2E785694469E0E7B3
:104620003E46DDE7A4F14103192B9AD987E700BF85
:1046300024CF010870B505460E461446002A48D01E
:104640002378013B4A2B2AD8DFE803F03535353E85
:104650002929262635353535353535353535353540
:1046600035353529353535353535353535352E2E14
:104670003535293535353535353535352926353511
:10468000353535353535353535352929352A2A2A13
:104690002A29353535353500A468002CD0D170BDB8
:1046A0006468002CCCD1FAE762681378052B03D13B
:1046B000336801333360626828463146FFF7BAFF3A
:1046C000A468002CBCD1EAE72B6801332B60626838
:1046D000F2E770BD70B50D46D0F80011FF29044611
:1046E00006D04B1CC4F80031655484F8045170BDE9
:1046F0000026D0F8083180F8FF60D0F80C219847E8
:10470000D4F8203131460133C4F820310123C4F8F4
:104710000031655484F8045170BD00BF70B4036863
:1047200019786E291BD000252E46A1F13003092BE4
:1047300088BF00230ED8026800230132026003EB19
:10474000830301EB43031178A1F13004092CA3F199
:104750003003F2D983EA0600284470BC70475A1C23
:104760000260597801254FF0FF36DEE74369826920
:10477000934214DA03EB43020169920010B501334E
:104780008C18436108D040238B540C30FFF7C6FFD0
:1047900023466060184610BD2346184610BD00230E
:1047A0001846704710B5C3681A785F2A04460BD0C4
:1047B0006E2A06D00C30FFF7B1FFE3681A785F2A43
:1047C00006D04FF0FF3010BD00200133E36010BD74
:1047D0000130FAE738B5C3681A78542A044601D084
:1047E000002038BD0133C360FFF7DCFF051EF7DB97
:1047F000A26A6369A16901328B42A262F0DA03EB1B
:10480000430221690133920063618B18E8D00524CB
:104810008C545D60184638BD08B5C3681A785F2AA5
:1048200001D0012008BD013340F80C3FFFF776FFAF
:10483000C043C00F08BD00BF70B504460C30FFF781
:104840006DFF061E32DDE56863685B1B9E422FDC50
:10485000A268AB195207E36015D4092E0CDD284677
:104860001449082212F04AFD30B92B7A2E2B10D0B1
:104870005F2B0ED0242B0CD0294632462046FFF762
:10488000A7FDE06270BDAA5D242A04BF0133E36086
:10489000E3E76B7A4E2BEFD1236B074916339E1B50
:1048A000266320461522FFF793FDEAE7002070BD3E
:1048B0000020E6E7FCDA010808DB010838B5044609
:1048C00029B9C3681A7832B15A1CC26019786829AC
:1048D00012D0762901D0002038BD04F10C052846FD
:1048E000FFF71CFFE3681A785F2AF4D10133E36015
:1048F0002846FFF713FF03E004F10C00FFF70EFF5B
:10490000E3681A785F2AE6D10133E360012038BDFD
:10491000D0F810310246C3B15A680B68906870B184
:1049200002782F2A0DD1002B04DC09E002782F2A0F
:1049300007D143B18068013B0028F7D17047704729
:1049400001D0002070474068704701211846C2F826
:104950001811704738B505460C4691B323784A2B99
:1049600027D8DFE803F02E26262626302E2B2B26EE
:1049700026262626262626262626262626262E26CF
:10498000262626262626262626262626262E2626BF
:10499000262626262626262E2B26262626262626AA
:1049A00026262626262E262626262E262E26262E87
:1049B0002E0028466168FFF7CDFF18B9A468002CC7
:1049C000CCD1002038BD2846211DFFF7A1FF0028CB
:1049D000F7D003782F2BF4D138BD00BFF0B5536862
:1049E000946801330B44A34283B015460E46074634
:1049F00013D8EC680CB103B0F0BD95E8090032465D
:104A00003946184409F012F82B686A6833449C54FC
:104A10006B681E446E6003B0F0BDD268002AEAD114
:104A20001CB9022B4FF0020402D96400A342FCD847
:104A30002868214612F076FD10B12860AC60D8E7F6
:104A40000190286812F076F9019B2B6001226B60BF
:104A5000AB60EA60CFE700BF2DE9F04104460846AD
:104A60000D4612F0CDFF48B3D4F800112F184FF0C7
:104A7000000809E00B46BD4201F10101C4F8001134
:104A8000E65484F8046119D0FF2915F8016BF1D1BF
:104A9000D4F8083184F8FF80D4F80C2120469847D8
:104AA000D4F820310133C4F8203100230121BD4264
:104AB000C4F80011E65484F80461E5D1BDE8F08142
:104AC0002DE9F04188B00A4604461B4901A812F0BE
:104AD00071FF01A812F094FF50B301ADD4F800119A
:104AE0002F184FF0000809E00B46BD4201F101010B
:104AF000C4F80011E65484F8046119D0FF2915F8B0
:104B0000016BF1D1D4F8083184F8FF80D4F80C217E
:104B100020469847D4F820310133C4F820310023CF
:104B20000121BD42C4F80011E65484F80461E5D1C6
:104B300008B0BDE8F08100BF20DB01081378033B1B
:104B40002DE9F0471546044688462A2B00F2B88125
:104B5000DFE813F05100B601B601B601B601B601A7
:104B6000B601B601B601B601B601B601B601B6018D
:104B7000B601B601B601B601B601B601B601B6017D
:104B800055007B00A10055007B00A100C600DE009F
:104B9000150127012D01300133015801B601B6017D
:104BA000B601B6017D01B6012B00DD4ED0F8001133
:104BB00006F10A0A4FF0000909E00B46013156459B
:104BC000C4F80011E75484F8047100F08581FF29CE
:104BD00016F8017BF1D1D4F8083184F8FF90D4F8AD
:104BE0000C2120469847D4F820310133C4F82031F5
:104BF00001210023E3E76A68BDE8F04714E2C94DEC
:104C0000D0F8001105F109074FF0000809E00B4644
:104C10000131BD42C4F80011E65484F8046100F08B
:104C20006D81FF2915F8016FF1D1D4F8083184F8AE
:104C3000FF80D4F80C2120469847D4F82031013366
:104C4000C4F8203101210023E3E7B74DD0F800116B
:104C500005F109074FF0000809E00B460131BD429C
:104C6000C4F80011E65484F8046100F04981FF297A
:104C700015F8016FF1D1D4F8083184F8FF80D4F829
:104C80000C2120469847D4F820310133C4F8203154
:104C900001210023E3E7A54DD0F80011AF1D4FF02F
:104CA000000809E00B460131BD42C4F80011E6548A
:104CB00084F8046100F00881FF2915F8016BF1D137
:104CC000D4F8083184F8FF80D4F80C2120469847A6
:104CD000D4F820310133C4F8203101210023E3E767
:104CE000D0F80031FF2B00F04C81591C2022C4F871
:104CF0000011E25484F80421FF2900F021814A1CAC
:104D00002623C4F80021635484F80431BDE8F087F9
:104D1000D0F80031FF2B00F05681591C2022C4F836
:104D20000011E25484F80421814D4FF00008AF1CBB
:104D300009E00B46BD4201F10101C4F80011E6543F
:104D400084F8046119D0FF2915F8016BF1D1D4F86A
:104D5000083184F8FF80D4F80C2120469847D4F815
:104D600020310133C4F8203100230121BD42C4F8B1
:104D70000011E65484F80461E5D1BDE8F087D0F86D
:104D80000011FF2900F0ED804A1C2023C4F8002107
:104D9000635484F804314146AA682046BDE8F047D0
:104DA00042E111F0040800F0AD80BDE8F087D0F8D2
:104DB0000011A1E7D0F80011B6E75E4DD0F8001160
:104DC00005F108074FF0000808E00B460131BD422D
:104DD000C4F80011E65484F8046177D0FF2915F86F
:104DE000016FF2D1D4F8083184F8FF80D4F80C2197
:104DF00020469847D4F820310133C4F820310121EE
:104E00000023E4E74C4DD0F8001105F10A074FF0FC
:104E1000000808E00B460131BD42C4F80011E65419
:104E200084F8046156D0FF2915F8016BF2D1D4F84B
:104E3000083184F8FF80D4F80C2120469847D4F834
:104E400020310133C4F8203101210023E4E790F838
:104E50000431282B0BD0D0F80011FF2900F0C480BA
:104E60004A1C2023C4F80021635484F804316A6882
:104E7000324D4146204600F0D7F8EF1CD4F800111F
:104E80004FF0000808E00B460131BD42C4F80011A4
:104E9000E65484F804611BD0FF2915F8016BF2D1A8
:104EA000D4F8083184F8FF80D4F80C2120469847C4
:104EB000D4F820310133C4F8203101210023E4E784
:104EC0002A46BDE8F047AFE0BDE8F087BDE8F087CF
:104ED000BDE8F087BDE8F08741466A68204600F0EB
:104EE000A3F8D4F80011FF295CD04A1C2923C4F888
:104EF0000021635484F80431BDE8F087BDE8F087F1
:104F0000BDE8F087D0F80011FF297DD04A1C2A2384
:104F1000C4F80021635484F80431BDE8F08700BF71
:104F200064DB010823DB01082FDB01083CDB0108FF
:104F300044DB010847DB010854DB010860DB0108A2
:104F40000025D4F80831D4F80C2184F8FF5020460D
:104F50009847D4F8203101332946C4F82031012282
:104F6000CEE60026D0F80831D0F80C2180F8FF609A
:104F70009847D4F8203101333146C4F8203101225A
:104F800003E700251946D0F80C21D0F8083180F845
:104F9000FF509847D4F820315A1CC4F820212B46E2
:104FA0000121A3E60025D4F80831D4F80C2184F8B7
:104FB000FF5020469847D4F8203101332946C4F8E1
:104FC0002031012292E700251946D0F80C21D0F8B3
:104FD000083180F8FF509847D4F820315A1CC4F8A3
:104FE00020212B46012199E60026D0F80831D0F87F
:104FF0000C2180F8FF609847D4F820310133314606
:10500000C4F8203101222CE7D0F80831D0F80C2167
:1050100080F8FF809847D4F8203101334146C4F826
:105020002031012273E700BF2DE9F04F044695B00F
:105030001546002A00F09D80D0F81831002B40F072
:10504000908013780E464B2B01F20680DFE813F0B8
:1050500020060A060A064C06D605BE057C0577051D
:105060006D056305590546053C05320528051E05F5
:1050700014053F0735072B072107FA07D407FA065F
:10508000D106BA07BA07BA07A807A807A807A8074A
:10509000A807A807A80776077607A807A80749075B
:1050A0000F05FA048D0471045903710431033103AF
:1050B0009C030703E002B902B502A3020004EB035C
:1050C000B303AF03AF034C004C004A049A028D02B5
:1050D0002002F901D201AB01840104085E016602DD
:1050E0003701EB00C10097006A681178272941F069
:1050F00079815268177C5FB1062F41F27F84072FB8
:1051000006D1AA68117819B99168012901F05A8667
:10511000D4F80011FF2901F057844A1C2823C4F851
:105120000021635484F8043131466A682046FFF751
:105130007BFFD4F80011FF2901F033844A1C292396
:10514000C4F80021635484F804312B783C2B01F01F
:105150000585082F204601F0F3843146AA68FFF741
:1051600063FF15B0BDE8F08FB8F1000F01D0C4F8AF
:1051700010710123C4F8183115B0BDE8F08FCD4F80
:105180006A68FFF751FF07F1080AD4F800114FF0E1
:1051900000090AE00B4601315745C4F8001104F834
:1051A000038084F8048100F09387FF2917F8018FAA
:1051B000F0D1D4F8083184F8FF90D4F80C212046BF
:1051C0009847D4F820310133C4F82031012100235D
:1051D000E2E7B94F6A68FFF727FF07F1050AD4F83D
:1051E00000114FF000090AE00B4601315745C4F8A1
:1051F000001104F8038084F8048100F0CF87FF29B0
:1052000017F8018BF0D1D4F8083184F8FF90D4F866
:105210000C2120469847D4F820310133C4F82031BE
:1052200001210023E2E76968FFF794FB4FF00008D3
:10523000002801F0A08503782F2B41F0CB80436834
:10524000002B01F0C780806808F101080028F2D126
:105250006B680093002708F1FF33DFF87CA201930D
:10526000B946C4F81C7120463146009AFFF7DCFEAF
:10527000019B9F4280F21B87D4F80011DFF85CB2DB
:1052800009E00B460131D345C4F80011E55484F818
:10529000045100F00C87FF291BF8015BF1D1D4F811
:1052A000083184F8FF90D4F80C2120469847D4F8B0
:1052B00020310133C4F8203101210023E3E77F4F7F
:1052C000D0F8001107F11A0A4FF000090AE00B4666
:1052D00001315745C4F8001104F8038084F80481B3
:1052E00000F06787FF2917F8018FF0D1D4F8083153
:1052F00084F8FF90D4F80C2120469847D4F8203148
:105300000133C4F8203101210023E2E76C4ED0F8CC
:10531000001106F10E094FF0000809E00B460131BB
:105320004E45C4F80011E75484F8047100F09987E1
:10533000FF2916F8017FF1D1D4F8083184F8FF80F5
:10534000D4F80C2120469847D4F820310133C4F812
:10535000203101210023E3E75A4FD0F8001107F173
:10536000080A4FF000090AE00B4601315745C4F81E
:10537000001104F8038084F8048100F0AE87FF294F
:1053800017F8018FF0D1D4F8083184F8FF90D4F8E1
:105390000C2120469847D4F820310133C4F820313D
:1053A00001210023E2E7484FD0F8001107F11C0A61
:1053B0004FF000090AE00B4601315745C4F80011CF
:1053C00004F8038084F8048100F0E186FF2917F8CF
:1053D000018FF0D1D4F8083184F8FF90D4F80C2173
:1053E00020469847D4F820310133C4F820310121F8
:1053F0000023E2E7354FD0F8001107F11D0A4FF006
:1054000000090AE00B4601315745C4F8001104F8C1
:10541000038084F8048100F0D087FF2917F8018FFA
:10542000F0D1D4F8083184F8FF90D4F80C2120464C
:105430009847D4F820310133C4F8203101210023EA
:10544000E2E7234FD0F8001107F10A0A4FF00009F4
:105450000AE00B4601315745C4F8001104F80380F7
:1054600084F8048100F08086FF2917F8018BF0D1C1
:10547000D4F8083184F8FF90D4F80C2120469847DE
:10548000D4F820310133C4F8203101210023E2E7B0
:105490006A68104904A812F08DFA04A812F0B0FA54
:1054A00000283FF45EAE04ADD4F800112F184FF081
:1054B00000081FE0E3DD010870DB0108C7DC01081C
:1054C000D3DD0108C3DD0108A3DD010883DD010888
:1054D00064DD010820DB0108FEDC0108FCDC0108BA
:1054E0000B460131BD42C4F80011E65484F8046152
:1054F0003FF437AEFF2915F8016BF1D1D4F808312C
:1055000084F8FF80D4F80C2120469847D4F8203145
:105510000133C4F8203101210023E3E7C44FD0F860
:10552000001107F1160A4FF000090AE00B4601319D
:105530005745C4F8001104F8038084F8048100F092
:105540008986FF2917F8018FF0D1D4F8083184F843
:10555000FF90D4F80C2120469847D4F8203101332D
:10556000C4F8203101210023E2E7D0F800112D79A1
:10557000FF2901F0AD814B1CC4F80031655484F85B
:105580000451EEE56A68FFF74FFD20463146AA68F0
:10559000FFF74AFDE5E56F68AD683B78312B01F018
:1055A0008180332B01F0C0803A4601F0ADFF2046E8
:1055B00031462A4601F0E4FFD3E56A6801F0A4FF12
:1055C000CFE59C4FD0F8001107F1090A4FF0000910
:1055D0000AE00B4601315745C4F8001104F8038076
:1055E00084F8048100F0EC85FF2917F8018FF0D1D1
:1055F000D4F8083184F8FF90D4F80C21204698475D
:10560000D4F820310133C4F8203101210023E2E72E
:10561000884FD0F8001107F1090A4FF000090AE09D
:105620000B4601315745C4F8001104F8038084F893
:10563000048100F0CC85FF2917F8018FF0D1D4F850
:10564000083184F8FF90D4F80C2120469847D4F80C
:1056500020310133C4F8203101210023E2E7D5F8DD
:105660000480754DD8F80870D0F8001105F1080ACB
:105670004FF0000909E00B4601315545C4F800110F
:10568000E65484F8046100F0A985FF2915F8016F3C
:10569000F1D1D4F8083184F8FF90D4F80C212046D9
:1056A0009847D4F820310133C4F820310121002378
:1056B000E3E76A680AB1FFF7B7FCAB68002B3FF479
:1056C00050ADD4F80011FD2901F25C8020465B4901
:1056D000FFF7C2F93146AA68D4F80061D4F8205126
:1056E0002046FFF7A1FCD4F82031AB427FF439AD5E
:1056F000D4F80031B3427FF434AD023BC4F800313A
:105700002FE5B5F90A30002B40F048876A684C4B0A
:105710005168994200F03E8731462046FFF784FCED
:10572000D4F80031FF2B01F0E081591C2022C4F88D
:105730000011E25484F80421B5F90830002B00F080
:10574000E386404D4FF00008AF1D09E00B460131E4
:10575000BD42C4F80011E65484F804613FF401AD81
:10576000FF2915F8016BF1D1D4F8083184F8FF80D6
:10577000D4F80C2120469847D4F820310133C4F8DE
:10578000203101210023E3E76A68AD680AB1FFF721
:105790004BFC20467B21FEF79DFF204631462A46E2
:1057A000FFF742FC20467D21FEF794FFD9E4012358
:1057B000C0F81831D5E4AB681A78392A7FF4D9AC2F
:1057C0009F683A783A2A7FF4D4ACD5F804A01E49F1
:1057D000DAF80420D3F804801068D7F80490BD6884
:1057E00008F0C2F9002801F0438220461749FFF76C
:1057F00033F9D8F8043043B120463146424601F02F
:10580000BFFE20462021FEF765FF4A46204631466E
:10581000FFF70AFC002D3FF4A4AC204631462A468F
:1058200001F0AEFE9DE40123C0F8183199E400BFF9
:10583000CBDC01080BDD0108FFDC0108FCDC010802
:1058400088D00108ECDC010828DD010830DD010802
:10585000AB681A78372A7FF48CAC6A68516808689C
:105860004778632F01F080811278312A00F0F983A4
:105870001F46C94908F078F97A6818B91378032BDC
:1058800001F010822046314601F07AFE6F68C3496C
:105890007B68D3F80080404608F066F9002801F0E4
:1058A000C1814046BC4908F05FF9002841F0CA8137
:1058B000AB6831469A68204601F062FE6B681A7840
:1058C000312A7FF44EAC5B689A68012A7FF449ACB8
:1058D0005B681B783E2B7FF444AC20462921FEF701
:1058E000F9FE3EE4AE4FD0F8001107F10E0A4FF07A
:1058F00000090AE00B4601315745C4F8001104F8CD
:10590000038084F8048100F09E84FF2917F8018F3A
:10591000F0D1D4F8083184F8FF90D4F80C21204657
:105920009847D4F820310133C4F8203101210023F5
:10593000E2E714ABD0F8142143F8402DC0F814313D
:10594000AA68D0F810310793002705950697FFF74E
:105950006BFB069B23B931462A462046FFF7EEF83B
:10596000049BC4F81431FFF7FCBB0DF1500AD0F8CA
:1059700014B14AF840BD0022D0F81031CDF800B083
:105980005946C0F814A1059506920793002901F025
:1059900060814B681B78193B022B01F25A81AC469F
:1059A0004FF001080F46554604E07B681B78193B11
:1059B000022B1DD8BB684FEA081E14AA02EB0E0B7F
:1059C0009BB9B8F1030F00F2C78797E80F00ABF15E
:1059D000400989E80F004BF8405C01230AEB0E05F3
:1059E000C4F8145108F10108BB603F68002FDCD1F6
:1059F000DCF80820204631466546FFF715FB069B7C
:105A0000009AC4F81421002B7FF4ABABB8F1010F5E
:105A100001F0F5800AEB081A5AF80C2C08F1FF384F
:105A200020463146FFF78AF8B8F1010FAAF1100AB3
:105A3000F2D1D4F81431204631462A1D01F0DCFBA6
:105A4000FFF78FBB8B0600F185856B681BB116F0E5
:105A5000400300F0868726F06006314605F1080213
:105A60002046D4F8143101F0F1F9FFF77ABB6A68E7
:105A7000FFF7DAFAFFF775BB4A49FEF7EDFF20465C
:105A800031466A68FFF7D0FAFFF76BBB4649FEF76D
:105A9000E3FF204631466A68FFF7C6FAFFF761BBAD
:105AA0004249FEF7D9FF204631466A68FFF7BCFA43
:105AB000FFF757BB3E49FEF7CFFF204631466A68E5
:105AC000FFF7B2FAFFF74DBB3A49FEF7C5FF204694
:105AD00031466A68FFF7A8FAFFF743BB3649FEF77D
:105AE000BBFF6A6820463146FFF79EFA20463349DD
:105AF000FEF7B2FF20463146AA68FFF795FAFFF796
:105B000030BB2F49FEF7A8FF204631466A68FFF7F1
:105B10008BFAFFF726BB2B49FEF79EFF2046314646
:105B20006A68FFF781FAFFF71CBB7E21FEF7D2FD02
:105B300020463146AA68FFF777FAFFF712BBAA683A
:105B4000FFF772FAFFF70DBB6F68002F40F04D842E
:105B50001D4DD0F8001105F1040809E00B46013194
:105B60004545C4F80011E65484F804613FF4F9AAED
:105B7000FF2915F8016BF1D1D4F8083184F8FF70D2
:105B8000D4F80C2120469847D4F820310133C4F8CA
:105B9000203101210023E3E720DD010824DD010895
:105BA00053DD010814DC010810DC0108FCDB0108EE
:105BB000E8DB0108D8DB0108B4DB0108D0DB010811
:105BC000A8DB01089CDB010874DD0108291DFEF734
:105BD0009FFE00283FF4CDAA03782F2B00F0EE851E
:105BE000D4F810512B68C4F81031024631462046D3
:105BF000FFF71AFAC4F81051FFF7B3BA0023D0F830
:105C00001491D0F83C81C0F81431C0F83C514A07D7
:105C10006F6805D53B781BB9BA68062A00F0CC87B7
:105C20003A4620463146FFF7FFF994F804313C2B01
:105C300000F0748720463C21FEF74CFD204631469B
:105C4000AA68FFF7F1F994F804313E2B00F0608761
:105C500020463E21FEF73EFDC4F81491C4F83C8175
:105C6000FFF77FBA6A68FFF7DFF97107204600F196
:105C70001C84CE49FEF7F0FEAD682B78452B00F072
:105C80001786204631462A46FFF7CEF9FFF769BA54
:105C900011F0040640F0A885AB686D68002B3FF456
:105CA00060AAD0F8001105EB030809E00B460131AA
:105CB0004545C4F80011E75484F804713FF451AA33
:105CC000FF2915F8017BF1D1D4F8083184F8FF6081
:105CD000D4F80C2120469847D4F820310133C4F879
:105CE000203101210023E3E70022D0F81431C0F86D
:105CF00014216F680093002F00F0E5810DF1100A68
:105D0000D0F810C190461046534639781A60A1F178
:105D10001C0EBEF1040FC4F814315F609860C3F824
:105D20000CC01A4608F1010803F1100340F2C581C6
:105D3000042900F0A981022940F0AC81D7F808B00D
:105D40009BF80030452B08BFDBF804B09BF800300F
:105D50001C3B042B00F29E81B8F1040F00F0B381CC
:105D600008F1805E0EF1FF3E2B460AEB0E1EB14697
:105D70005D4666469B46A446744603E0B8F1040FB0
:105D800001F00A8094E80F0004F1100E8EE80F0075
:105D9000234600221C615D609A60DE60CCF814E14D
:105DA0006D682B781C3B042B744608F10108E5D97B
:105DB000DBF80820604649466446FFF735F93B7832
:105DC000042B4E4600F06F81B8F1000F0CD00AEBA7
:105DD000081A45465AF8083C013D002B00F0A486FD
:105DE000AAF1100A002DF5D1009BC4F81431FFF779
:105DF000B8B9AF686D68002F3FF4B3A9D0F80011AF
:105E00002F444FF0000809E00B460131BD42C4F8B1
:105E10000011E65484F804613FF4A3A9FF2915F8A2
:105E2000016BF1D1D4F8083184F8FF80D4F80C214B
:105E300020469847D4F820310133C4F8203101219D
:105E40000023E3E75A4FD0F8001107F1110A4FF091
:105E500000090AE00B4601315745C4F8001104F867
:105E6000038084F8048100F07881FF2917F8018FFE
:105E7000F0D1D4F8083184F8FF90D4F80C212046F2
:105E80009847D4F820310133C4F820310121002390
:105E9000E2E74849FEF7E0FD204631466A68FFF731
:105EA000C3F8FFF75EB94449FEF7D6FD20463146F8
:105EB0006A68FFF7B9F8FFF754B94049FEF7CCFD1F
:105EC000204631466A68FFF7AFF8FFF74AB93C4908
:105ED000FEF7C2FD204631466A68FFF7A5F8FFF7D6
:105EE00040B911F0040640F0E5826A68536815680D
:105EF000002B3FF436A9D0F8001105EB030809E0A8
:105F00000B4601314545C4F80011E75484F804718B
:105F10003FF427A9FF2915F8017BF1D1D4F8083106
:105F200084F8FF60D4F80C2120469847D4F820313B
:105F30000133C4F8203101210023E3E768680378C6
:105F4000052B00F052834FF00008232B00F0FE8257
:105F50002A789A4200F0FA82242B00F08385D4F844
:105F60001401D4F81021059514AB002143F8400D1D
:105F70000691C4F8143107926A6820463146FFF74B
:105F800053F8069B002B00F01F82049BC4F81431C9
:105F9000B8F1000F3FF4E5A8C4F81071FFF7E1B8BD
:105FA000D0F814014FF00008DBE700BF78DB0108F0
:105FB000B3DC010868DC010854DC010844DC01089A
:105FC00028DC0108D0F814C1BCF1000F00F0DE8617
:105FD0006246916851B950680078A0F1190EBEF17F
:105FE000020F00F2E083834200F0E1831268002A8E
:105FF000EFD160469046B4E7D54FD0F8001107F1D5
:10600000150A4FF0000909E00B4601315745C4F865
:10601000001104F8038084F804816CD0FF2917F87C
:10602000018FF1D1D4F8083184F8FF90D4F80C2115
:1060300020469847D4F820310133C4F8203101219B
:106040000023E3E7C349FEF707FD204631466A68AF
:10605000FEF7EAFFFFF785B80123C0F81831FFF714
:1060600080B88A68012A7FF403AC4A6812783E2A15
:106070007FF4FEAB20462821FEF72CFB6B68AF684F
:106080005B681868FFF7F5BB14AB039743F848CD7E
:10609000C4F81031AA6820463146FEF7C5FF3B78A8
:1060A000042B7FF494AE029BC4F810318CE60137C8
:1060B00047457FF4D6A8FFF754B87F681FB1B8F101
:1060C000040F7FF422AE0123C4F81831FFF749B85A
:1060D0003146AA682046FEF7A7FFD4F80011FF2931
:1060E00000F0D5834A1C5D23C4F80021635484F872
:1060F0000431FFF736B8984FAA6831462046FEF7BC
:1061000093FF07F1050AD4F800114FF0000909E0E8
:106110000B4601315745C4F8001104F8038084F898
:10612000048113D0FF2917F8018BF1D1D4F808317D
:1061300084F8FF90D4F80C2120469847D4F82031F9
:106140000133C4F8203101210023E3E72046314622
:106150006A68FEF769FFFFF704B8204631466A68AF
:10616000FEF762FFFEF7FDBF31466A682046FEF784
:106170005BFFD4F80011FF2900F0CC834A1C2923CF
:10618000C4F80021635484F80431FEF7EABF2046C6
:1061900031466A68FEF748FFFEF7E3BF3146204606
:1061A000AA68FEF741FF20465D21FEF793FAFEF74D
:1061B000D8BF204631466A68FEF736FFFEF7D1BFEA
:1061C000204631462A1D01F0EFF8FEF7CABF2046EF
:1061D0003146AA68FEF728FFFEF7C3BFD8F804507F
:1061E0002B78613B192B40F2C881EB1913F8013C65
:1061F000202B08BF07F1FF37002F3EF4B2AFD4F8D1
:1062000000112F444FF0000809E00B460131BD4258
:10621000C4F80011E65484F804613EF4A2AFFF29EB
:1062200015F8016BF1D1D4F8083184F8FF80D4F867
:106230000C2120469847D4F820310133C4F820318E
:1062400001210023E3E7204631466A68FEF7ECFEB1
:10625000FEF787BF204631466A68FEF7E5FEFEF787
:1062600080BF6A683D49013204A811F0A3FB04A86D
:1062700011F0C6FB18B304ADD4F800112F184FF07D
:10628000000808E00B460131BD42C4F80011E65495
:1062900084F8046115D0FF2915F8016BF2D1D4F808
:1062A000083184F8FF80D4F80C2120469847D4F8B0
:1062B00020310133C4F8203101210023E4E7D4F870
:1062C0000011FF2900F015834A1C7D23C4F800212A
:1062D000635484F80431FEF744BF3146204E6A68A7
:1062E0002046FEF7A1FE06F10209D4F800114FF096
:1062F000000808E00B4601314E45C4F80011E75490
:1063000084F8047113D0FF2916F8017BF2D1D4F878
:10631000083184F8FF80D4F80C2120469847D4F83F
:1063200020310133C4F8203101210023E4E7AA68B9
:106330000A49013204A811F03DFB04A811F060FBEA
:1063400068B304ADD4F800112F184FF0000812E024
:106350009BDC010880DC010894DC010820DB0108DB
:10636000D0DD01080B460131BD42C4F80011E654EE
:1063700084F8046115D0FF2915F8016BF2D1D4F827
:10638000083184F8FF80D4F80C2120469847D4F8CF
:1063900020310133C4F8203101210023E4E7D4F88F
:1063A0000011FF2900F0C7824A1C7D23C4F8002198
:1063B000635484F80431FEF7D4BE204631466A683F
:1063C000FEF732FEFEF7CDBE31462A462046FEF7E6
:1063D000B5FBDAE56B680093B8F1000F7EF43AAFD5
:1063E000FEF7BFBE0027FEF793BEDF4DD0F80011C9
:1063F00005F106094FF0000808E00B4601314D4554
:10640000C4F80011E65484F8046113D0FF2915F88C
:10641000016BF2D1D4F8083184F8FF80D4F80C2154
:1064200020469847D4F820310133C4F820310121A7
:106430000023E4E73A4604A8CC4911F0BBFA04A8CB
:1064400011F0DEFA18B304ADD4F800112F184FF094
:10645000000808E00B460131BD42C4F80011E654C3
:1064600084F8046115D0FF2915F8016BF2D1D4F836
:10647000083184F8FF80D4F80C2120469847D4F8DE
:1064800020310133C4F8203101210023E4E7D4F89E
:106490000011FF2900F0A2834A1C7D23C4F80021CB
:1064A000635484F80431FEF75CBE2E21FEF712F926
:1064B000FFF7E2BB6B68DF689D68002F3EF451AECA
:1064C000D0F800112F444FF0000809E00B460131CD
:1064D000BD42C4F80011E65484F804613EF441AEB4
:1064E000FF2915F8016BF1D1D4F8083184F8FF8049
:1064F000D4F80C2120469847D4F820310133C4F851
:10650000203101210023E3E7994D9846AF1D09E0B2
:106510000B460131BD42C4F80011E65484F8046111
:106520003EF41FAEFF2915F8016BF1D1D4F8083104
:1065300084F8FF80D4F80C2120469847D4F8203105
:106540000133C4F8203101210023E3E70546D4F8E4
:10655000140106E521F0600605F108023146D4F881
:10656000143100F073FC6A68002A3EF4FAAD20464C
:106570003146FEF759FDFEF7F4BDFF2900F0C08358
:1065800020234A1CC4F80021635484F80431D8F84D
:1065900004502AE6D4F80011FFF7CEB8754FD0F8B2
:1065A000001107F1050A4FF000080AE00B4601311F
:1065B0005745C4F8001104F8039084F804913FF49F
:1065C000A5A8FF2917F8019BF0D1D4F8083184F869
:1065D000FF80D4F80C2120469847D4F820310133AD
:1065E000C4F8203101210023E2E7D4F82811D4F8BF
:1065F00024C1002915DDDCF80030984200F04A8201
:106600000CF108020023BE4604E05CF83370B84287
:1066100000F0418201338B42904602F10802F4D12E
:106620007746D4F82C31994280F2BB83D4F810819C
:106630004B1C0CEBC109C4F8283109F104094CF8D2
:106640003100B8F1000F20D0D4F83431D4F838112B
:106650008B4280F2A6834FEAC30E8C4602E063456C
:1066600000F09D83D4F83021D8F80410724401332F
:106670005160C9F80020D8F800800EF1080E91464C
:10668000B8F1000FEBD1C4F834314FF00008011D10
:10669000C9F800802046FEF73BF9002840F00A8246
:1066A000FEF767BD7B683449D3F80080404607F0A9
:1066B0005BFA2B7810B9032B00F03283372B00F0F4
:1066C0007583204631463A4600F01EFF40462B496E
:1066D00007F04AFA002800F08A814046284907F06E
:1066E00043FA074600287EF462AFD4F80031FF2B4E
:1066F00000F03183581C2827C4F800013146E754C4
:106700002A46204684F80471FEF78EFCD4F8001166
:10671000FF2900F0108329234A1CC4F80021635488
:1067200084F80431FEF71DBDD0F80011FF2900F0F8
:10673000D782481C2823C4F800013A1D6354204620
:10674000314684F8043100F02FFED4F80011FF29FF
:1067500000F0B68229234A1CC4F80021635484F84F
:106760000431FEF724BF00BF7CDD010820DB0108F7
:10677000F4DC0108E4DC010818DD01081CDD010877
:10678000E8DF01080027D4F808316754D4F80C2159
:1067900020469847D4F82031C4F800710133C4F87A
:1067A0002031FEF793BF60468846FFF7DABB2046EC
:1067B00031466A68FEF738FCFEF7D3BCD4F81C31CA
:1067C00008E08068013B00283EF4D3AC02782F2A11
:1067D0007EF4CFAC002BF4DC7EF4CBAC4068002818
:1067E0007FF4FEA9FEF7C5BC6E68AB6806EB030834
:1067F0004645BEF4B6AC00270DE0D4F80011FF29E1
:1068000035D04B1CC4F80031655484F8045101366E
:10681000B0457EF6A6ACC6EB0803032B3578ECDD5D
:106820005F2DEAD172785F2AE7D1B378552B01D07A
:106830001546E2E7F31C9845FAD9002205E00D461B
:10684000434505EB021200F0A582994613F8015B5F
:10685000A5F13001C8B20928A5F1410EEFD9BEF16A
:10686000050FA5F1610100F21081373DE8E7D4F88A
:10687000083184F8FF70D4F80C2120469847D4F8EA
:1068800020310133C4F8203100210123BAE700256B
:10689000D4F80831D4F80C2184F8FF5020469847EA
:1068A000D4F8203101332946C4F8203101221AE4FA
:1068B0002046D449FEF7D0F8A96820460131FEF7FA
:1068C000FFF82046D049FEF7C7F86D68FFF7D9B941
:1068D0000026D0F8083180F8FF60D0F80C219847E6
:1068E000D4F820310133C4F8203131460123FEF7BA
:1068F00043BE0025D4F80831D4F80C2184F8FF50A9
:1069000020469847D4F8203101332946C4F8203175
:106910000122DAE40025D4F80831D4F80C2184F8F7
:10692000FF5020469847D4F8203101332946C4F857
:106930002031012223E40025D4F80831D4F80C21B9
:1069400084F8FF5020469847D4F820310133294677
:10695000C4F82031012228E50123C4F81831FEF7DC
:1069600000BC14AAD4F8141142F8401D26F06006A9
:10697000C4F814216A68D4F8107106933146204691
:1069800005950797FEF750FB069B049AC4F814215F
:10699000002B7EF4E6AB20462021FDF79BFEFFF79F
:1069A0005CB84FF00008D4F80831D4F80C2184F812
:1069B000FF8020469847D4F8203101334146C4F87F
:1069C00020310122FEF7BBBB4FF00008D4F808319C
:1069D000D4F80C2184F8FF8020469847D4F8203161
:1069E00001334146C4F820310122FEF797BB20460F
:1069F00031462A46FEF718FBFEF7B3BBAA681278A9
:106A0000002A7EF485AB3C2B00F00F823146AA6849
:106A10002046023FFEF708FB042F3EF6A2ABDFE85C
:106A200007F01B150F09030020467849FEF714F8FC
:106A3000FEF797BB20467649FEF70EF8FEF791BBAE
:106A400020467449FEF708F8FEF78BBB20466C2100
:106A5000FDF740FEFEF785BB20467521FDF73AFEA7
:106A6000FEF77FBB14ABD4F81411426843F8401D05
:106A70000020D4F810110595C4F814310690079140
:106A8000002A7FF47AAAFFF777BA052900F2A981D4
:106A9000573DD5E6E046D8F80430D4F81071C4F874
:106AA0001031011D2046FDF733FF00283EF45FAB97
:106AB0004FF0010803782F2B7FF447AAD4F81C313C
:106AC00008E08068013B00283EF44EAB02782F2A94
:106AD0007EF44AAB002BF4DC7EF446AB4068002821
:106AE0003EF442AB0378FFF730BA00261946D4F8DB
:106AF0000C21D4F8083184F8FF6020469847D4F878
:106B000020315A1CC4F8202133460121FEF70EBE65
:106B100020462021FDF7DEFDFFF79AB82046202110
:106B2000FDF7D8FDFFF786B820462021FDF7D2FDFE
:106B3000204631465AF80C2CFEF700F8FFF750B902
:106B40005B21FDF7C7FD20463146AA68FEF76CFAC7
:106B500020465D21FDF7BEFDFEF703BB20462D213B
:106B6000FDF7B8FDFEF7F5BA0778A7F1630EBEF1A1
:106B7000010F03D9723F012F3EF676AE2046314613
:106B800000F0C2FC20463C21FDF7A4FDAB68204686
:106B90005A683146FEF748FA20461F49FDF75CFF68
:106BA000AB68314620469A68FEF73EFA2046292116
:106BB000FDF790FDFEF7D5BA7868184910F04EFF42
:106BC00000287FF42DA831462046AA68FEF72CFA4B
:106BD00020461349FDF740FFFFF73EB80025D4F8E3
:106BE0000831D4F80C2184F8FF5020469847D4F897
:106BF000203101332946C4F8203101224DE4009BA5
:106C0000FEF719BF7CDB01088CDB010840DD0108C1
:106C10003CDD010838DD0108F0DD010890DB0108EA
:106C200098DB010820465B21FDF754FDAB68314637
:106C300020469A68FEF7F8F920465D21FDF74AFDE7
:106C4000FEF73CBE3A462046314600F05DFCFEF7BA
:106C50002FBEAA6820463146FEF7E6F9069B009A49
:106C6000C4F81421002B7EF47CAA1346FEF7E3BE81
:106C700042462046314600F083FC204631465246CB
:106C800000F042FC4A462046314600F079FC20469E
:106C90006A49FDF7E1FE204631462A4600F070FCC5
:106CA000FEF75FBA93681B78292B1CBF0123C4F839
:106CB000183152682046314600F062FCFEF7E6BD0E
:106CC0000027D4F8083184F8FF70D4F80C2120464E
:106CD0009847D4F8203101333946C4F8203139E5DA
:106CE0004FF00008D0F8083180F8FF80D0F80C2170
:106CF0009847D4F8203101334146C4F8203118E5D3
:106D00000025D4F8083184F8FF50D4F80C2120462F
:106D10009847D4F8203101332946C4F820312FE4B4
:106D20006B681A78012A7FF4CCACAA681278292AF9
:106D300008BF1D46C5E40025D4F8083184F8FF508B
:106D4000D4F80C2120469847D4F820310133294645
:106D5000C4F82031DFE484F8FF001946D4F80C2190
:106D6000D4F8083120469847D4F820315A1CC4F88A
:106D700020213B46BEE4314620466A6800F000FC14
:106D800020462F49FDF768FEFEF7EBB96046E04666
:106D9000FFF7E7B85F2530E56446FFF794B9C4F81C
:106DA00034310123C4F81831FEF7DBB96A68204694
:106DB000314600F0E5FB204631463A4600F0A4FBA0
:106DC000FEF7CFB93B2B7EF4A3A953681B78302B79
:106DD0002FD0312B7EF49CA91A49FDF73DFEFEF71A
:106DE000C0B9C845D6D95F2DD4D1FF2A3FF605AD2D
:106DF000D4F80011FF29D5B20FD1D4F8083184F8A6
:106E0000FF70D4F80C2120469847D4F82031C4F8FC
:106E100000710133C4F8203100214B1CC4F800314B
:106E20004E46655484F80451F1E42D21FDF752FCDF
:106E3000ECE50549FDF710FEFEF793B92CDD0108DE
:106E400070DD01084CDD010844DD01082DE9F8433F
:106E500004460D4616461F46002B3ED09B68002B6D
:106E60003BD13A464FF0010E06E010F4606F64D15A
:106E7000126892B3936883BB53686C491B78193BC3
:106E8000DBB20EFA03F0122B01EA0001F0D8002960
:106E9000EBD094F80431202B55D0D4F80031FF2BDF
:106EA00000F0B180591C2022FF29C4F80011E254DF
:106EB00084F804214BD14FF00008D4F8083184F84D
:106EC000FF80D4F80C2120469847D4F820310133B4
:106ED000C4F82031414601233AE00023D4F814815C
:106EE000C4F81431294620463A4600F0A1F8D4F8F7
:106EF0000011FF294BD028224B1CC4F800316254EA
:106F000084F8042132682AB120462946FEF78CF81D
:106F1000D4F80031FF2B53D05A1C2926C4F8002185
:106F20002946E6543A46204684F80461012300F0DD
:106F30007FF8C4F81481BDE8F88394F8043103F0B5
:106F4000FD02282AA7D1D4F80011FF29B3D04B1C89
:106F500028224FF00009C4F80031D4F8148162549B
:106F60004B4684F80421C4F81491204629463A4639
:106F700000F05EF8D4F80031FF2B33D0591C2922E1
:106F8000FF29C4F80011E25484F80421B3D100238E
:106F900084F8FF30D4F80C21D4F808312046984703
:106FA0002823237084F80431D4F820313268591C26
:106FB0000123C4F82011C4F80031002AA4D1ABE7A2
:106FC00000261946D4F80C21D4F8083184F8FF6063
:106FD00020469847D4F820315A1CC4F82021334663
:106FE00001229AE71946D4F80C21D4F8083184F824
:106FF000FF9020469847D4F820315A1CC4F820212D
:107000004B460121BBE74FF000081946D4F80C218C
:10701000D4F8083184F8FF8020469847D4F820310E
:107020005A1CC4F82021434601213CE707310400E3
:107030002DE9F84F144662B31E46D0F818310546C4
:10704000002B40F0A0800F464FF0010802E0D5F879
:10705000183103BBA368CBB9626813781EB9A3F1DA
:107060001C01042912D9E168C4F80880292BD5F83D
:107070001091C5F8101110D02A2B18D0022B20D057
:1070800028463946FDF75AFDC5F810912468002CB2
:10709000DDD1BDE8F88FBDE8F88F394608322368A6
:1070A0002846FFF7D3FEC5F81091BDE8F88F3946A2
:1070B00004322368284600F09FF8C5F81091BDE817
:1070C000F88F0026D5F81481C5F814615268284657
:1070D0003946FDF7A9FFC5F8148117F0040823D13C
:1070E000424ED5F8001106F1020B09E00B460131C2
:1070F0005E45C5F8001105F803A085F804A11ED06F
:10710000FF2916F801ABF1D1D5F8083185F8FF80D9
:10711000D5F80C2128469847D5F820310133C5F819
:10712000203101210023E3E7D5F80011FF291AD00F
:107130004A1C2E23C5F800216B5485F8043163687E
:107140009C682378452B02D11FE0646823781C3BA0
:10715000042BFAD9394622462846FDF765FFC5F8C3
:107160001091BDE8F88FD5F80831D5F80C2185F8D5
:10717000FF6028469847D5F8203101333146C5F8DD
:1071800020310122D5E7BDE8F88F194ED5F800115E
:1071900006F10D0A4FF0000B09E00B460131564590
:1071A000C5F8001105F8038085F8048113D0FF2984
:1071B00016F8018BF1D1D5F8083185F8FFB0D5F874
:1071C0000C2128469847D5F820310133C5F82031E5
:1071D00001210023E3E7A16828460131FDF770FC97
:1071E00028460449FDF738FCAFE700BF78DB01080B
:1071F0007CDB01088CDB01082DE9F84F04460E46C4
:10720000174699464BB1986878B31B68002BFAD1A2
:107210004A4620463146FFF70BFFD4F80031FF2BDA
:1072200068D0591C2022C4F80011E25484F80421CB
:10723000FF2900F094805B224B1CC4F8003162549B
:1072400084F804213A682AB131462046FDF7ECFE65
:10725000D4F80031FF2B70D0591C5D22C4F8001106
:10726000E25484F80421BDE8F88F5B681B782A2B70
:1072700000F08F80DFF82C81D4F80011054608F16A
:10728000020B0AE00B46D84501F10101C4F80011D8
:1072900004F803A084F804A11AD0FF2918F801AB60
:1072A000F0D1D4F8083184F8FF50D4F80C212046EE
:1072B0009847D4F820310133C4F82031002301214C
:1072C000D845C4F8001104F803A084F804A1E4D15F
:1072D00031464A4620460023FFF7AAFED4F80011A3
:1072E000FF2919D04B1C2922C4F80031625484F8BC
:1072F000042194E700251946D4F80C21D4F808316C
:1073000084F8FF5020469847D4F820315A1CC4F81E
:1073100020212B46012185E70025D4F8083184F887
:10732000FF50D4F80C2120469847D4F8203101337F
:10733000C4F8203129460123D5E700251946D4F8A1
:107340000C21D4F8083184F8FF5020469847D4F82F
:1073500020315A1CC4F820212B4601217DE700234F
:1073600084F8FF30D4F80C21D4F80831204698472F
:107370005B23237084F80431D4F820313A68591C17
:107380000123C4F82011C4F80031002A7FF45CAF57
:1073900062E7034631464A462046FFF749FED4F8E5
:1073A000001145E76CDD0108F0B50E46D0F83C1140
:1073B00083B00446154639B102ABD0F8102143F82A
:1073C000082D0191C0F810312A681378042B0BD0D6
:1073D00031462046FDF728FED4F83C3113B1009B1E
:1073E000C4F8103103B0F0BD526820463146FDF7B5
:1073F0001BFED4F83C3113B1009BC4F8103194F853
:1074000004313C2B43D0D4F80011FF291DD04A1C75
:107410003C23C4F80021635484F804312B683146BE
:107420009A682046FDF700FE94F804313E2B3AD0CE
:10743000D4F80011FF2919D04A1C3E23C4F80021BA
:10744000635484F8043103B0F0BD0027D4F8083148
:10745000D4F80C2184F8FF7020469847D4F82031E6
:1074600001333946C4F820310122D1E70025D4F890
:107470000831D4F80C2184F8FF5020469847D4F8FE
:10748000203101332946C4F820310122D5E7D4F850
:107490000031FF2B13D0591C2022C4F80011E254F4
:1074A00084F80421B1E7D4F80031FF2B19D0591C1E
:1074B0002022C4F80011E25484F80421BAE700271E
:1074C0001946D4F80C21D4F8083184F8FF7020460E
:1074D0009847D4F820315A1CC4F820213B4601219A
:1074E000DAE700251946D4F80C21D4F8083184F8DD
:1074F000FF5020469847D4F820315A1CC4F8202168
:107500002B460121D4E700BF2DE9F0411578312D3C
:1075100003D0BDE8F041FDF787BD53689F685D6803
:1075200067B30446D0F800112F444FF0000809E07B
:107530000B46BD4201F10101C4F80011E65484F884
:10754000046119D0FF2915F8016BF1D1D4F8083185
:1075500084F8FF80D4F80C2120469847D4F82031D5
:107560000133C4F8203100230121BD42C4F80011C9
:10757000E65484F80461E5D1BDE8F081BDE8F0810E
:10758000F8B51378012B044621D9302B1FD0062BD8
:107590001DD0D0F80031FF2B0E4615462DD05A1CB9
:1075A0002827C4F800213146E7542A46204684F8AB
:1075B0000471FDF739FDD4F80011FF290CD04A1CE5
:1075C0002923C4F80021635484F80431F8BD20460F
:1075D000BDE8F840FDF728BD0025D4F80831D4F8FF
:1075E0000C2184F8FF5020469847D4F8203101330D
:1075F0002946C4F820310122E2E700271946D4F8D1
:107600000C21D4F8083184F8FF709847D4F8203161
:107610005A1CC4F820213B460122C1E770B5C3685B
:107620001A784C2A044601D0002070BD5A1CC26052
:1076300059785F2937D05A290CD10132E2602046AF
:10764000002103F089F8E2681378452BECD1013270
:10765000E26070BD00F042F805460028E4D00378EF
:10766000272B30D0E1680B786E2B26D03B26452B9C
:1076700032D0002BD8D00A4601E0002BD4D0013202
:10768000E2601378452BF8D1521A2046FCF7A0FE91
:107690002A46034631462046FCF74EFEE268137840
:1076A000452BC1D1D3E79A1CC2609B785A2BC4D01A
:1076B000452B4FF00000B7D1C9E74A1CE2604B7878
:1076C0003C261146D3E743681A7C002ACAD05A6880
:1076D000236B9B1A2363C5E70022D6E72DE9F04F01
:1076E0000446C0680378722B83B055D0562B53D014
:1076F0004B2B51D0A3F130024A2A00F2C380DFE8BD
:1077000012F0EB00EB00EB00EB00EB00EB00EB000A
:10771000EB00EB00EB00C100C100C100C100C100E3
:10772000C100C100F100C1000F013101C1001D0104
:107730002301C100C100C100C100C100A101EB00D3
:10774000B901C701C100D501E3013C020502C10036
:10775000C100C100C100EB00C100C100C100C100F7
:10776000C100C10017021702170217021702170201
:107770001702170217021702C10017021702170299
:107780001702C100C100C10017021702D100170281
:107790001702170217021702204601A90022FCF760
:1077A00031FE054600286DD0E3681B78462B204645
:1077B0006DD0FFF793FF2860002863D003781F3B4C
:1077C000012B68D9019A002A5CD0236A616A8B4236
:1077D00058DAE06940F82320591C019D21622846AF
:1077E00003B0BDE8F08F0125676B656383784C2B90
:1077F00000F0A884542B00F0A084732B00F0B78312
:10780000662B00F09483A3F13002092A40F21F8313
:107810006F2B00F01683692B00F0BC83742B00F0F3
:10782000DB84204601F04EF90546002800F065840F
:107830000378312B00F0C183322B00F0BF84332B4F
:1078400040F05B84E3681A785F2A01F0A28020464A
:1078500004F0DCFE03462A4620463521FCF76CFD89
:1078600002466763204641210023FCF765FD05467B
:10787000019038B1E3681A7822B15A1CE2601B7893
:10788000452B1ED00025284603B0BDE8F08F01F03F
:10789000F9F8286090E7019A436842602A680192EB
:1078A0002B608FE70130E0602046FCF7C5FF282100
:1078B000024600232046FCF73FFD05460190002DBF
:1078C000E0D0236A626A9342DCDAE1695A1C41F82B
:1078D0002350019D226282E7204602F0BDFD05464D
:1078E0000190ECE7411CE16043785F2B00F0578288
:1078F000303B092B00F261820A460132E2601378C4
:10790000303B092BF9D9521A2046FCF761FD054698
:1079100020B1E1680B785F2B00F042820025A7E0E0
:107920000130E0602046FFF7D9FE25210246002302
:107930002046FCF701FD05460190C0E7204601F016
:10794000A1F805460190BAE70130E0602046FFF754
:10795000C5FE2621024600232046FCF7EDFC054625
:107960000190ACE7431CE3604378002B8AD0831C72
:10797000E3604378463B302B84D801A252F823F0D1
:10798000297D00088578000885780008857800083A
:1079900085780008857800088578000885780008D3
:1079A00085780008857800088578000885780008C3
:1079B0008578000885780008E77700088578000852
:1079C00085780008857800088578000885780008A3
:1079D0008578000885780008857800088578000893
:1079E0008578000885780008857800081B7D0008E8
:1079F0008578000885780008FD7C0008397C00083F
:107A00000D7C000885780008E17B0008B57B000844
:107A10008578000885780008857800088578000852
:107A2000D57C000885780008BD7C000885780008B2
:107A3000857800089F7C0008E777000885780008B3
:107A4000657C00080130E0602046FFF747FE0546F0
:107A500000283FF463AF2046FFF740FE00283FF4C4
:107A60005DAF2A4603462B212046FCF765FC054600
:107A7000019524E70130E0602046FFF72FFE242126
:107A8000024600232046FCF757FC0546019016E706
:107A90000130E0602046FFF721FE2221024600234C
:107AA0002046FCF749FC0546019008E70130E060FC
:107AB0002046FFF713FE2321024600232046FCF751
:107AC0003BFC05460190FAE64378A3F13002092A0F
:107AD00005D95F2B03D0413B192B00F27A81204658
:107AE0000021FCF701FDE36801901B78492B054656
:107AF0007FF475AE204601F0A7F92A46034604211B
:107B00002046FCF719FC05460190D8E60130E060FC
:107B10002046FCF791FE01902046FFF7DFFD212172
:107B20000246019B2046FCF707FC05460190C6E68D
:107B3000613BAE4F6269A56903EB83039B0007F1CC
:107B4000C401AA42194480F2268102EB4206D4F80D
:107B500010E0B60001321EEB0605626100F01B81E9
:107B600027223B440EF806206960226BD3F8C83008
:107B700001301344E060236331E62046FCF72AFE1F
:107B8000E66801903378492B05467FF498AEA36BE5
:107B9000002B40F03D8100283FF474AE236A626AF6
:107BA0009342BFF66FAEE1695A1C41F82300019D74
:107BB00022629FE76369A269934280F2EC8003EB43
:107BC00043022169920001338D18636100F0E38064
:107BD000874B272088546B60236B08332363FEE5B3
:107BE0006369A269934280F2D68003EB4302216964
:107BF000920001338D18636100F0CD807D4B27200A
:107C000088546B60236B04332363E8E56369A269DE
:107C1000934280F2C08003EB43022169920001335A
:107C20008D18636100F0B780734B272088546B6018
:107C3000236B09332363D2E56369A269934280F21F
:107C4000AA8003EB43022169920001338D1863611E
:107C500000F0A180694B272088546B60236B0A33A6
:107C60002363BCE583785F2B00F007812046FCF797
:107C70007DFD0546002D3FF4FBAEE3681A785F2AD0
:107C80007FF44CAE0133E3602046FFF727FD2A4620
:107C900003462D212046FCF74FFB0546E8E66369C5
:107CA000A269934277DA03EB430221699200013320
:107CB0008D1863616FD02720514B8BE72046FFF76B
:107CC0000DFD4921024600232046FCF735FB054601
:107CD0000190F4E56369A26993425CDA03EB430225
:107CE0002169920001338D18636154D0454B2720E0
:107CF00088546B60236B1133236370E56369A26959
:107D0000934248DA03EB43022169920001338D1854
:107D1000636140D027203C4B88E720463B49042242
:107D2000FCF756FB05465AE56369A269934280F267
:107D30008580256903EB430292000133A9182C26A4
:107D400063610191AE548378303B092B8CBF0023D3
:107D500001230B811BB104F10C00FCF7DFFC204672
:107D6000019DFFF7BBFC019B68605B68002B3FF443
:107D700089AD04F10C00FCF7D1FCE26813783BB14B
:107D8000531CE3601378A3F17303B3FA83F35B0925
:107D9000019D6B8123E5002301935B68FFDE0025D5
:107DA0000131E1602046FFF799FC2A4603462A216B
:107DB0002046FCF7C1FA05465AE60123656B63636A
:107DC000204604F023FC6563054600287FF4A1AD3E
:107DD000A4E5204602F040FB0546019000283FF450
:107DE00051AD0378182B7FF46CADF8E424CF010873
:107DF00054D201082CD20108F0D1010818D2010890
:107E000040D2010868D2010804D20108FCDD010853
:107E10002046D4F81490D4F82080A76A256B01F08E
:107E200013F8E2681278492A6AD02563E660C4F83C
:107E30001490C4F82080A762019D40E500231B70C8
:107E4000FFDEC3786E2B7FF4ECAC0430E06020469C
:107E500000F0BAFE0546002800F04F81E3681B7869
:107E6000492B7FF4FDAC204600F0EEFF2A46034686
:107E700004212046FCF760FAF2E4C31C0125E3600C
:107E8000676B6563C3784C2B00F0E581542B00F0E1
:107E9000DD81732B00F0C781662B00F0A681A3F172
:107EA0003002092A40F232816F2B00F02981692BC0
:107EB00040F0148503796C2B00F0FF84204600F01D
:107EC00001FE0646002800F006820378312B00F000
:107ED000E581322B00F01B83332B40F0FC81E368FB
:107EE0001A785F2A00F0D381204604F08FFB034606
:107EF000324620463521FCF71FFA05466763B9E68E
:107F0000019B002B3FF4BEAC226A616A8A42BFF635
:107F1000B9ACE569511C45F82230019A216203464B
:107F200004212046FCF708FA05460190C7E4C3780F
:107F3000702B7FF476AC031DE3600379542B40F083
:107F4000D6800530E06000256269A3699A4280F21C
:107F5000D4800C23216903FB02F301326261CA1849
:107F600000F0C8840620C8541046556078E4C378F1
:107F7000722B00F00C81702B7FF453AC0430E06066
:107F8000204604F043FB4921024600232046FCF72B
:107F9000D3F965E4C3786C2B7FF443AC0025E36828
:107FA0000233E3602046452103F064F82A46034685
:107FB00030212046FCF7C0F952E44168226B8B68FF
:107FC0000E68C649023B13442363304605F0CCFDDE
:107FD000002800F0D5846B68DB68032B00F28D80ED
:107FE000DFE803F07DB5400300263046BC4905F0CC
:107FF000BBFD002800F09B8433786E2B7DD1737815
:10800000772B01D0612B78D15F21204603F032F825
:1080100006462046FFF762FBE3681A78452A804649
:1080200000F08084702A00F07184692A65D15B7841
:108030006C2B62D1204604F0E9FA424603463A210D
:108040002046FCF779F93246034639212046FCF7F1
:1080500073F92A46034638212046FCF76DF9FFF7ED
:10806000FFBB00266B681B685A78632A00F079848E
:10807000204604F0CBFA804630469A4905F074FD5C
:10808000002800F067843046974905F06DFD30B157
:108090003046964905F068FD002840F0558420469A
:1080A00000F092FDE3681B78492B064609D1204673
:1080B00000F0CAFE3246034604212046FCF73CF994
:1080C00006464246334620463721FCF735F92A4614
:1080D000034636212046FCF72FF9FFF7C1BB2A469D
:1080E000204634210023FCF727F9FFF7B9BB2046CF
:1080F000FCF758FB451C7FF427AF0020FFF7B0BB0F
:1081000003796E2B7FF4DAAE0530E060204600F094
:108110005BFD0546002800F0DE80E3681B78492BF4
:108120007FF4ECAE204600F08FFE2A460346042181
:108130002046FCF701F90546E0E62046FCF74AFB3D
:10814000FFF78EBB2046FFF769FAFFF789BB33784C
:10815000702B02D06D2B7FF47AAB72789A427FF449
:1081600076ABE3681A785F2A00F00F84204604F0AB
:108170004DFA0246134620463721FCF7DDF8034648
:108180002A4620463521FCF7D7F8FFF769BB0430B3
:10819000E0602046FFF7A2FA0646204600F014FDF4
:1081A000E3681B78492B804600F0FB830346294691
:1081B00032462046FCF7C0F8FFF752BB6B68032B32
:1081C0009BD801A252F823F0DF8000084F78000806
:1081D00063800008E97F0008C3786C2B7FF421AB33
:1081E0002046FFF77BFA0546D9E60379702B7FF42A
:1081F00065AE431DE3604379542B67D10630E060E0
:1082000000206269A3699A4265DA0C23216903FBA5
:1082100002F3CD1802F1010262613FF46FAE062253
:10822000CA5468606AE60379722B19D0702B7FF408
:1082300045AE0530E060204604F0E8F949210246E9
:1082400000232046FCF778F8054657E62046FCF761
:10825000C1FA054652E62046FFF7E0F905464DE62D
:108260000530E0602046FFF739FA0646204600F068
:10827000ABFCE3681B78492B804600F05781294608
:10828000034632462046FCF757F8054636E60133EA
:10829000E3602046452102F0EDFE28E64168226BAE
:1082A0008B680D680D49023B13442363284605F093
:1082B0005BFC002800F027817368DB68032B0AD879
:1082C000DFE813F01901F200A60017002046FCF7C2
:1082D00069FA013095D1002510E600BFE8DF0108FA
:1082E00028DD010820DD0108F4DD0108F8DD0108C2
:1082F00000252846AD4905F037FC824698B32B7817
:108300006E2BE8D16B78772B01D0612BE3D15F2105
:10831000204602F0AFFE80462046FFF7DFF9E36813
:108320001A78452A81466ED0702A60D0692AD2D147
:108330005B786C2BCFD1204604F068F905462B46BC
:108340004A463A212046FBF7F7FF424603463921C9
:108350002046FBF7F1FF3246034638212046FBF763
:10836000EBFF0546CAE5204604F050F9804620465A
:1083700004F04CF9E1680A784C2A814600F08782C3
:10838000542A00F07F82732A00F04D82662A00F0A2
:108390002B82A2F13003092B40F20F826F2A00F0EA
:1083A0000682692A00F0FD81742A00F0E3812046EC
:1083B00000F088FB05460028C1D00378312B00F07F
:1083C000DD80322B00F0CC80332B40F0C780E36897
:1083D0001A785F2A00F0BB80204604F017F92A467D
:1083E000034635212046FBF7A7FF0546A7E75A7845
:1083F000692A7FF470AF0233E3602046452102F022
:1084000039FE05469BE70133E360002597E7002529
:1084100073681B685A78632A39D0204604F0F6F84E
:1084200080462846624905F09FFB50B328466149C3
:1084300005F09AFB28B128465F4905F095FB002816
:1084400051D1204600F0C0FBE3681B78492B05465C
:1084500009D1204600F0F8FC2A46034604212046B4
:10846000FBF76AFF05462B46424637212046FBF7BD
:1084700063FF3246034636212046FBF75DFF054683
:108480003CE52046452102F0F5FD0546EBE71B786B
:10849000A3F16302012A02D9723B012BBDD8204609
:1084A000FFF71CF98046BCE72B78702B02D06D2BB0
:1084B0007FF41AAD6A789A427FF416ADE3681A78B1
:1084C0005F2A15D0204604F0A1F802461346204644
:1084D0003721FBF731FF0346324620463521FBF7B3
:1084E0002BFF05460AE5204604F090F80546BAE75A
:1084F0000133E360F8E43246204634210023FBF7E1
:108500001BFF0546FAE42046FFF7E8F8E3E7736847
:10851000032B3FF6E0AE01A252F823F0F7840008E7
:10852000E97E00080F840008F1820008204600F070
:108530008BFC4246034604212046FBF7FDFE2946FC
:10854000034632462046FBF7F7FE0546D6E40133E4
:10855000E3602046452102F08DFD40E70025EEE670
:108560006B68032BFAD801A252F823F06587000844
:10857000D983000853860008C18500084168226B32
:108580008B68D1F800A00D49023B13442363504689
:1085900005F0EAFA002800F0DE806B68DB68032B48
:1085A000DCD8DFE803F0DFB7580F00BF28DD010893
:1085B00020DD0108F4DD0108F8DD0108E8DF01082D
:1085C0004FF0000A5046CD4905F0CEFAA8B39AF80C
:1085D00000306E2BC2D19AF80130772B01D0612B7D
:1085E000BCD15F21204602F045FD82462046FFF7C0
:1085F00075F8E3681A78452A834600F08780702A68
:1086000079D0692AAAD15B786C2BA7D1204603F0D8
:10861000FDFF03465A463A212046FBF78DFE52469F
:10862000034639212046FBF787FE2A4603463821B8
:108630002046FBF781FE054681E6204603F0E6FF73
:108640008246204603F0E2FF8346204603F0DEFF29
:10865000DFE74FF0000A6B681B685A78632A38D04E
:10866000204603F0D3FF83465046A54905F07CFA27
:1086700048B35046A34905F077FA20B15046A249C5
:1086800005F072FA90BB204600F09EFAE3681B7872
:10869000492B824609D1204600F0D6FB52460346BC
:1086A00004212046FBF748FE82465A4653463721AE
:1086B0002046FBF741FE2A46034636212046FBF7BB
:1086C0003BFE05463BE62046452102F0D3FC8246B0
:1086D000EBE71B78A3F16302012A02D9723B012B5D
:1086E000BED82046FEF7FAFF8346BDE7204603F0DA
:1086F0008DFF8246D9E75A78692A7FF42FAF02337B
:10870000E3602046452102F0B5FC82E70133E360D7
:1087100000207EE79AF80030702B02D06D2B7FF49A
:108720005BAE9AF801209A427FF456AEE3681A785D
:108730005F2A14D0204603F069FF02461346204604
:108740003721FBF7F9FD03462A4620463521FBF782
:10875000F3FD0546F3E52046FEF7C0FFF3E70133DE
:10876000E36039E62A46204634210023FBF7E4FD86
:108770000546E4E54B786C2B7FF419AE2046FEF7F6
:10878000ADFFE16805460231E1602046452102F077
:1087900071FC2A46034630212046FBF7CDFD0546F5
:1087A000CDE54A786C2A7FF402AE5546EBE74B786C
:1087B0006E2B7FF4FCAD0231E160204600F004FA3C
:1087C000054600283FF4BBADE3681B78492B7FF4D6
:1087D000B6AD204600F038FB2A4603460421204669
:1087E000FBF7AAFD0546AAE54B78702B7FF4DFADB9
:1087F0008B1CE3608B78542B28D10331E160504609
:108800006269A3699A42BFF6A9AE0C23216903FBF2
:1088100002F3CD1802F1010262613FF490AD06222D
:10882000CA5468608BE54A78722A15D0702A7FF4A2
:10883000BEAD0231E160204603F0E8FE5346024639
:1088400049212046FBF778FD054678E52046FBF7F1
:10885000A9FF0130D4D17CE70231E1602046FEF768
:108860003DFF0546204600F0AFF9E3681B78492B31
:10887000824611D02A46034601212046FBF75CFDC3
:1088800005465CE52046FBF7A5FF054657E5204673
:10889000FEF7C4FE054652E5204600F0D5FA5246E2
:1088A000034604212046FBF747FD2A4603460121E3
:1088B0002046FBF741FD054641E50025E36802330C
:1088C000E3604521204602F0D5FB2A4603463021CD
:1088D0002046FBF731FD0546FFF710BB742B7FF4F4
:1088E000EDAA03796C2B7FF4E9AA2046FEF7F6FE89
:1088F0000546E3E71046FEF7B3BF00BF28DD0108D9
:1089000020DD0108F4DD0108F8DD01085A78692A44
:108910007FF4F3AB0233E3602046452102F0AAFB6B
:10892000FFF78BBB0133E3600020FFF786BB2046D7
:1089300003F06CFE0646204603F068FE80462046A3
:1089400003F064FEFFF779BB204603F05FFE0646A6
:10895000FFF7B7BB2046452102F08CFB0646FFF728
:10896000B0BB1B78A3F16302012A03D9723B012B30
:108970003FF67EAB2046FEF7B1FE8046FFF77CBB9C
:108980002046FEF7ABFEFFF7FABB0133E360FEF7CC
:108990005EBF0133E3602046452102F06BFBFEF72A
:1089A00059BF204600F050FA4246034604212046B3
:1089B000FBF7C2FC2946034632462046FBF7BCFCC7
:1089C000FEF74EBF30B5C26883B000230193137821
:1089D00043B3452B26D02E2B24D0044601AD15E001
:1089E0004F2B16D0FEF77AFE2E2102460023C8B187
:1089F0002046FBF7A1FC2860A0B1E268137800F1E3
:108A000008054BB1452B07D02E2B05D0522B204605
:108A1000E6D15378452BE5D1019818B1836823B18D
:108A200003B030BD002003B030BD42681178272963
:108A3000F6D15268117C0929F2D15168226B521A81
:108A400022634360ECE700BF70B5C3681A784A2A16
:108A500004460DD071B90D462046FFF7B3FF03461B
:108A600070B120462A462921BDE87040FBF764BC5E
:108A70000133C3602046FEF731FE05460028EBD1E6
:108A8000002070BDC3681A78462A01D000207047C4
:108A900010B55A1CC2605A78592A04BF0233C36009
:108AA00001210446FFF7D0FF01462046FBF702FDF7
:108AB000E3681A78452A01D0002010BD0133E36035
:108AC00010BD00BF2DE9F041C3681A78844612B387
:108AD0005A1CC2605A781E7802BB9646394D3D201A
:108AE0000022831A03EBD37302EB630319016F189F
:108AF0006C5821788E4207D0B1420AD9184682427A
:108B0000EFD10020BDE8F08161788E4540D07145FD
:108B1000F4D85A1CF3E796461646DFE79A1CC26063
:108B2000762E044693F801E01CD1AEF13005EBB28D
:108B3000092BD3D8FBF780FE6369A1698B420246FB
:108B4000DFDA03EB430120690133890063614318D5
:108B5000D7D0002AD5D0322444545D609A6018469C
:108B6000BDE8F081632EB9D1BEF1760FB6D1436B6B
:108B7000B3FA83F35B09856B8363FEF7AFFDA563EF
:108B80000246332120460023BDE8F041FBF7D4BB69
:108B9000DCF81430DCF818209342B2DA03EB43021D
:108BA000DCF8101001339200CCF814308B1805D08B
:108BB000312088545F601846BDE8F0811846BDE852
:108BC000F08100BF7CD20108F8B5C2681378A3F128
:108BD0003001092904462ED9A3F16101192933D99D
:108BE000A3F14301012971D94C2B00F08D80552B45
:108BF00040F0888053786C2B30D0742B40F082800A
:108C0000531CC3605178742900F0C68042294FF08C
:108C1000000517D10133E3602046FBF70DFE2A461D
:108C200003464A212046FBF787FBE368197842296F
:108C30000546EFD006E0FBF7FFFDE368197805462F
:108C40004229E7D02846F8BDFFF73CFF054610B1A2
:108C50000378312B65D0E3681978F1E7531CC360C2
:108C600051786C29D2D10232C260FFF7ABFEE368C3
:108C70000646002800F0E28019784529C6D1013364
:108C8000E3602046FBF78EFD0028C0F29F806369F9
:108C9000A269934280F29A8003EB43022169920019
:108CA00001338D18636100F0918044238B546E6012
:108CB000A860236A626A934280F28880E26942F87F
:108CC00023505A1CE36822621978B9E7C06AA8B138
:108CD000017889B9216B83680B4423631178432998
:108CE0007ED0442979D15378303B052B0AD8DFE870
:108CF00003F02F4750094D4A1829EBD0432B6FD072
:108D0000442BF0D00020F8BD0132C260FBF794FD87
:108D100005460028F6D02046FBF77EFD00289AD1B4
:108D2000F0E74268266B936810684649334407337E
:108D3000236304F019FF00288DD12046FBF77CFD4A
:108D40002A46034635212046FBF7F6FA054682E718
:108D50004FF0010E6169A569931CA942E36039DAFD
:108D600001EB41062769B6000131BD19616131D0BF
:108D700080B30821B95585F804E0A86091785FE7D1
:108D80004FF0020EE6E74FF0050EE3E74FF0040E5A
:108D9000E0E74FF0030EDDE70232C260FBF702FDB1
:108DA000002813DB6369A26993420FDA03EB4302E5
:108DB0002169920001338D18636107D046238B54DB
:108DC0006860236A626A9342FFF678AFE368002521
:108DD000197835E79178002532E7134600252FE70B
:108DE0005378313B042B8DD8DFE803F00325221F95
:108DF0001C004FF0010E6169A569931CA942E36054
:108E0000E8DA01EB41062769B6000131BD1961615D
:108E1000E0D00028DED00721B95585F804E0A8602D
:108E200091780DE74FF0050EE5E74FF0040EE2E70D
:108E30004FF0030EDFE74FF0020EDCE7054619782E
:108E4000FEE600BF04DE01082DE9F04FC168D0F84E
:108E50002C800B78493B012B85B0044600F28A80B8
:108E60004A1CC2604B78452B00F0868104AD00217E
:108E700045F8041D493B0F2B61D8DFE803F05B5B2D
:108E80006040606060606060606060606008511CAD
:108E90000127E160666B676353784C2B00F0D58047
:108EA000542B00F0D880732B7DD0662B00F08F8080
:108EB000A3F1300009284CD96F2B45D0692B00F065
:108EC000A680742B00F0B7802046FFF7FBFD074615
:108ED000002865D00378312B00F0C380322B00F0DE
:108EE0002181332B5CD1E3681A785F2A40F0388106
:108EF0000133E3602046452102F0BCF833E120460F
:108F0000FEF78CFB0246002A34D020462F21002396
:108F1000FBF712FA286068B3E2681378452B00F17A
:108F20000805A7D10398C4F82C800132E26005B08F
:108F3000BDE8F08F2046FFF787FF0246E3E72046B3
:108F4000FEF7CCFB0246DEE793786E2BBCD10332F2
:108F5000E2602046FFF738FE0746002800F07F82D7
:108F6000E3681978492900F0ED80024666631978B4
:108F7000452903D0002005B0BDE8F08F0133E36040
:108F8000C1E74FF0000A5046CE4904F0EDFD81469E
:108F9000002800F0AF819AF800306E2B00F0348189
:108FA000E3680022E2E79378722B00F00F81702BC8
:108FB0008AD10332E260204603F028FB00230246F8
:108FC00049212046FBF7B8F9E3680246CEE79378DB
:108FD000702B7FF479AFD31CE360D378542B40F02F
:108FE0000C810432E26000206369A1698B42D7DA08
:108FF00021695A1C03EB4303626111EB830200F009
:10900000E380062701F823705060E368AEE79378A9
:109010006C2B7FF459AF00270231E16020464521D7
:1090200002F028F83A46034630212046FBF784F93F
:10903000E36802469AE793786C2B7FF445AF2046AD
:10904000FEF74CFBE1680746E6E72046FEF7E6FA46
:10905000E36802468AE72046FBF7BCFBE36802466A
:1090600084E7D0F80490226BD9F80830D9F800A032
:109070009549023B13442363504604F075FD0028D4
:1090800000F01581D9F80C30032B89D801A252F8D1
:1090900023F000BF139100088D910008A9900008EB
:1090A000878F00084FF0000A7B681B685A78632A94
:1090B00000F01281204603F0A9FA81465046834908
:1090C00004F052FD002800F0F6805046804904F07C
:1090D0004BFD30B150467F4904F046FD002840F07A
:1090E000C3812046FFF770FDE3681B78492B824659
:1090F00000F00B824A46534637212046FBF71CF905
:109100003A46034636212046FBF716F9E368024645
:109110002CE73A46002320463421FBF70DF9E3689B
:10912000024623E77B68032B3FF63AAF01A252F8D1
:1091300023F000BF1391000861910008A59000087A
:10914000838F00082046FFF77FFE3A46034604213E
:109150002046FBF7F1F8E368024607E70133E360D6
:10916000204603F053FA03463A4620463521FBF7E2
:10917000E3F8E3680246F9E602310022C1601346D3
:109180002F2105B0BDE8F04FFBF7D6B89AF80030B4
:10919000702B01D06D2BE3D19AF801209A42DFD1D8
:1091A000E3681A785F2AD9D0204603F02FFA0246E6
:1091B000134620463721FBF7BFF803463A462046C0
:1091C0003521FBF7B9F80246E368CFE60332E260E7
:1091D0002046FEF783FA81462046FFF7F5FCE36858
:1091E0001B78492B824650D003464A4639462046D2
:1091F000FBF7A2F8E3680246B8E62046FBF7D2FA8E
:1092000001307FF4F1AEDEE79AF80130772B02D01F
:10921000612B7FF4C5AE5F21204601F02BFF824613
:109220002046FEF75BFAE3681A78452A814600F08B
:109230005681702A00F0CF81692A40F013815A7854
:109240006C2A40F00F810233E3604521204601F093
:1092500011FF3021034600222046FBF76DF88346BC
:109260004A465B463A212046FBF766F852460346DB
:1092700039212046FBF760F83A460346382120465C
:10928000FBF75AF8E368024670E62046FFF7DCFD7C
:109290005246034604212046FBF74EF84A46034651
:1092A00039462046FBF748F8E36802465EE620466A
:1092B000FEF714FA81E72046452101F0DBFE8246E5
:1092C00018E700BF28DD0108E8DF010820DD0108FC
:1092D000F4DD0108F8DD01081B78A3F16302012A1F
:1092E00003D9723B012B3FF6E5AE2046FEF7F6F9B7
:1092F0008146E3E6E3681A784C2A00F00382542A98
:1093000000F06B83732A00F07281662A00F0AF814F
:10931000A2F13001092940F226816F2A00F01D8157
:10932000692A00F0F681742A00F05E832046FFF778
:10933000C9FB8246002800F0B4830378312B00F08B
:10934000F683322B00F05A83332B40F0F681E3682A
:109350001A785F2A01F06180204603F057F903462E
:10936000524620463521FAF7E7FFE2681378824635
:109370004C2B00F00382542B00F06782732B00F01B
:109380006081662B00F08881A3F13001092940F249
:1093900009816F2B00F00081692B00F0D881742BBC
:1093A00000F012832046FFF78DFB8146002800F075
:1093B000AA820378312B00F0E682322B00F0518232
:1093C000332B40F0E781E3681A785F2A00F08B873F
:1093D000204603F01BF903464A4620463521FAF79A
:1093E000ABFFE3681A7881464C2A00F0CE81542AFC
:1093F00000F03282732A00F01081662A00F0628148
:10940000A2F13001092940F291806F2A00F0888092
:10941000692A00F0C681742A00F00E822046FFF708
:1094200051FB834600283FF41BAF0378312B00F03B
:109430004884322B00F0A683332B40F08381E3680D
:109440001A785F2A00F0BD86204603F0DFF85A46FE
:10945000034635212046FAF76FFF834600E70246B0
:10946000E36883E5002281E5E3681A784C2A00F07E
:10947000E484542A00F0C484732A00F0C981662A67
:1094800000F0A481A2F13001092932D96F2A2BD032
:10949000692A00F01086742A00F00E852046FFF736
:1094A00011FB8246002800F069830378312B00F01D
:1094B0006D84322B00F0A885332B40F05F83E36886
:1094C0001A785F2A00F05087204603F09FF8524632
:1094D000034635212046FAF72FFF82460AE601337C
:1094E000E3604FF0000BBBE65A786E2AD6D1023308
:1094F000E3602046FFF768FB8246002800F03E83C9
:10950000E3681B78492B7FF4F5AD2046FFF79CFC00
:109510005246034604212046FAF70EFF8246E9E54B
:109520005A786E2A7FF47AAF0233E3602046FFF761
:109530004BFB834600283FF493AEE3681B78492B2E
:109540007FF48EAE2046FFF77FFC5A460346042187
:109550002046FAF7F1FE834682E65A786E2A7FF4B7
:10956000E5AE0233E3602046FFF72EFBE268824659
:10957000137800283FF4FCAE492B7FF4F9AE204667
:10958000FFF762FC5246034604212046FAF7D4FE58
:10959000E26882461378EBE653786E2B7FF402AFD5
:1095A000931CE3602046FFF70FFBE36881461A78BF
:1095B00000283FF419AF492A7FF416AF2046FFF781
:1095C00043FC4A46034604212046FAF7B5FEE36809
:1095D00081461A7808E75A78692A7FF443AF023344
:1095E000E3602046452101F045FD834638E65A7880
:1095F000722A00F04784702A7FF498AE0233E36049
:10960000204603F003F84B46024649212046FAF76C
:1096100093FEE26882461378AAE65A78722A00F02E
:10962000F583702A7FF4FAAE0233E360204602F03D
:10963000EDFF4921024600232046FAF77DFE8346CE
:109640000EE65378722B00F06683702B7FF4AAAE7F
:10965000931CE360204602F0D9FF492102462046D0
:109660000023FAF769FEE36881461A78BCE65A7867
:10967000702A7FF45BAE9A1CE2609A78542A40F01C
:10968000F683DA1CE2606369A1698B42C0F2DB8376
:1096900013784FF0000A6BE65378702B7FF482AE9C
:1096A000931CE3609378542B40F0FA84D31CE3605E
:1096B00000206269A1698A42C0F2DE841A784FF004
:1096C000000991E65A78702A7FF4A8AE9A1CE260ED
:1096D0009A78542A40F016830333E36000206369CC
:1096E000A26993422EDA2269591C03EB430312EB61
:1096F000830B61613FF4B4AD062102F82310CBF86F
:109700000400ADE52046FDF789FFE2688246137844
:109710002EE65A786C2A7FF409AE0233E3604521C5
:10972000204601F0A7FC4A46034630212046FAF7BE
:1097300003FEE268824613781AE6E2684FF0000AF8
:10974000137815E64FF0000B8AE54FF0000A5378C6
:109750006C2B7FF427AE4FF00009E3680233E3601F
:109760004521204601F086FC4A460346302120462A
:10977000FAF7E2FDE36881461A7835E62046FDF700
:109780004DFFE36881461A782EE62046FDF746FF36
:10979000834665E5E3684FF000091A7824E64FF048
:1097A00000095B786C2B7FF439AE4FF0000BE36857
:1097B0000233E3604521204601F05CFC5A46034633
:1097C00030212046FAF7B8FD834649E55A78702AD9
:1097D0007FF464AE9A1CE2609A78542A40F0C88103
:1097E0000333E36000206269A3699A4280F2C68174
:1097F0000C23216903FB02F311EB030A02F10102BE
:1098000062613FF477AC0622CA54CAF8040071E4DE
:109810005A78722A00F06F85702A7FF43FAE0233C7
:10982000E360204602F0F2FE492102460023204672
:10983000FAF782FD82465DE45B786C2B7FF4EEAD37
:109840002046FDF74BFF8346B1E72046FAF7C2FFFB
:10985000E36881461A78C7E52046FAF7BBFF8346DE
:10986000FEE4D9F80430032B94D801A252F823F077
:109870007F990008D19300080D990008819800088D
:109880004FF0000B5846C74904F06EF9002800F06D
:10989000A4859BF800206E2A7FF47CAF9BF80130F2
:1098A000772B02D0612B7FF475AF5F21204601F04A
:1098B000E1FB00902046FDF711FFE3681A78452A86
:1098C000834600F07985702A00F06F85692A40F0A0
:1098D00068855A786C2A7FF462AF204602F096FEC3
:1098E00003465A463A212046FAF726FD009A0346D7
:1098F00039212046FAF720FD4A4603463821204602
:10990000FAF71AFD8146E3681A786DE54FF0000B0F
:10991000D9F8042012685178632900F02D8520467B
:1099200002F074FE009058469F4904F01DF900288B
:1099300000F06C8558469D4904F016F930B1584640
:109940009B4904F011F9002840F025852046FFF7D7
:109950003BF9E3681B78492B834600F03285009A77
:109960005B4637212046FAF7E7FC4A460346362194
:109970002046FAF7E1FCE36881461A7834E54A4666
:10998000204634216CE64368206B9A68D3F800B017
:1099900088490093023A10442063584604F0E4F8E2
:1099A000009B002800F02E85DA68032A3FF6F2AE0D
:1099B00001A353F822F000BF7F990008C39D00085F
:1099C000119900088598000853786C2B7FF4EAAC55
:1099D0002046FDF783FE8146BFE62046FAF7FAFEF1
:1099E000E26882461378C3E45B786C2B7FF49EAC0C
:1099F0002046FDF773FEE36881468EE6DAF8043010
:109A0000032B3FF69AAE01A252F823F01B9B0008ED
:109A100059930008A99A00081D9A00084FF0000900
:109A20004846604904F0A0F8002800F0708399F8D7
:109A300000306E2B7FF481AE99F80130772B02D085
:109A4000612B7FF47AAE5F21204601F013FB814643
:109A50002046FDF743FEE2681378452B834600F06D
:109A60009A83702B00F09083692B40F089835378A0
:109A70006C2B7FF46AAE204602F0C8FD03465A46BE
:109A80003A212046FAF758FC4A4603463921204637
:109A9000FAF752FC5246034638212046FAF74CFCAE
:109AA0008246E268137863E44FF00009DAF8043084
:109AB0001B685A78632A00F01C83204602F0A6FD3A
:109AC00083464846384904F04FF8002800F00B83DD
:109AD0004846364904F048F830B14846344904F065
