:020000040800F2
:104000000040002001430008034300080243000869
:10401000024300080243000802430008024300086C
:104020000243000802430008024300085136010819
:10403000024300080243000802430008024300084C
:10404000024300080243000802430008024300083C
:104050000243000802430008E16F010841700108B3
:10406000B17001082171010891710108F17C01080A
:10407000317D0108717D0108B17D0108F17D0108E4
:10408000317E0108717E010802430008217C01088D
:10409000417C0108617C0108817C010801720108F2
:1040A00002430008024300080243000802430008DC
:1040B000A167010802430008024300080243000808
:1040C00002430008024300080243000802430008BC
:1040D00002430008B16B01080243000802430008D4
:1040E000417301080243000802430008024300082C
:1040F000024300080243000802430008B17E0108A1
:1041000002430008E160010802430008024300087E
:10411000024300080243000802430008024300086B
:10412000F17E0108317F0108717F0108B17F01082C
:10413000F17F01080243000802430008024300081F
:1041400002430008024300080243000841560108E8
:104150003180010871800108B18001080243000824
:10416000024300080243000802430008024300081B
:10417000024300080243000802430008024300080B
:1041800002430008024300080243000802430008FB
:1041900002430008024300080243000802430008EB
:1041A00002430008024300080243000802430008DB
:1041B00002430008024300080243000802430008CB
:1041C00002430008024300080243000802430008BB
:1041D00002430008024300080243000802430008AB
:1041E00072B6394880F30888384880F3098838481F
:1041F0004EF60851CEF20001086040F20000CCF209
:1042000000004EF63471CEF200010860BFF34F8F0C
:10421000BFF36F8F40F20000C0F2F0004EF68851FD
:10422000CEF200010860BFF34F8FBFF36F8F4FF0E6
:104230000000E1EE100A4EF63C71CEF2000108607B
:10424000062080F31488BFF36F8F15F059FB12F02E
:1042500097FD4FF055301F491B4A91423CBF41F832
:10426000040BFAE71C49194A91423CBF41F8040B80
:10427000FAE71A491A4A1B4B9A423EBF51F8040BFF
:1042800042F8040BF8E700201749184A91423CBF56
:1042900041F8040BFAE715F04BFB15F039FB144C11
:1042A000144DAC4203DA54F8041B8847F9E701F0D7
:1042B0005FFD114C114DAC4203DA54F8041B8847E2
:1042C000F9E715F02DBB000000400020004400205D
:1042D0000040000800000020004000201C5302089D
:1042E00000440020684E0020684E002058F2002054
:1042F000E0410008E0410008E0410008E04100081A
:104300006EE7FFE7FEE7C0462DE9F04F2DED108A7E
:10431000C1F80CD0C3689D46BDEC108ABDE8F08F93
:10432000002383F311882846A047002010F040FBAB
:1043300010F096F900DFFEE700000000000000002A
:10434000A2EB0300704700BF02780B78012A28BF58
:104350009A42F5D16DE9044540EA0104CDE90267CE
:104360006FF0000C4FEA447212B380EA010414F0BB
:10437000070F6AD100F0070420F0070004F00305DE
:1043800021F007014FEAC505F0E8042314F0040FFB
:10439000F1E804670CFA05F462EA040266EA04062E
:1043A0000AD063EA0403624667EA0407664603E04C
:1043B000F0E80423F1E8046782FA4CF582EA060487
:1043C000A4FA8CF46CBB83FA4CF583EA0705A5FAD2
:1043D0008CF595B950E9022351E9026782FA4CF550
:1043E00082EA0604A4FA8CF483FA4CF583EA070502
:1043F000A5FA8CF52543DBD09CB92DBAB5FA85F426
:1044000024F0070427FA04F1DDE9026723FA04F334
:1044100003F0FF0001F0FF01FDE80445A0EB0100FF
:10442000704724BAB4FA84F424F0070426FA04F19D
:10443000DDE9026722FA04F202F0FF0001F0FF0159
:10444000FDE80445A0EB0100704714F0030F3CD1D8
:1044500010F0030428D150F8082B51F8083B82FAD9
:104460004CF582EA0305A5FA8CF55DB950F8042CE9
:1044700051F8043C82FA4CF582EA0305A5FA8CF562
:10448000002DE8D02DBAB5FA85F424F0070423FAFC
:1044900004F122FA04F202F0FF0001F0FF01FDE84E
:1044A0000445A0EB010070474FEAC40420F003006C
:1044B00050F8082B21F0030151F8083B0CFA04F4E2
:1044C00062EA040263EA0403C9E710F003041AD0A5
:1044D000A1EB040120F00300E40750F8042B06D000
:1044E0000FD28B785FFAA2F4E41A06D12BB1CB7805
:1044F0005FFAB2F4E41A00D11BB920465DF8104B04
:10450000704701F1040150F8042BCC0721F003019E
:1045100051F8043B48D824D222F07F4482FA4CF56B
:1045200094EA1325A5FA8CF50AD165B951F8043B34
:1045300084EA0204B4EB036F0ED150F8042BEBE7CE
:104540004FEA132355E035F07F454DD10878FDE85B
:104550000445C0F1000070474FEA126203F0FF0308
:1045600047E002EA1C4482FA4CF594EA1345A5FAA6
:104570008CF50AD165B951F8043B84EA0204B4EB26
:10458000034F0CD150F8042BEBE74FEA134330E014
:1045900015EA1C4528D10B884FEA124229E04FEA60
:1045A000124203EA1C4324E002F0FF0482FA4CF5B5
:1045B00094EA1365A5FA8CF50AD165B951F8043B64
:1045C00084EA0204B4EB032F09D150F8042BEBE783
:1045D0004FEA13630DE015F0FF0F05D10B684FEAAA
:1045E000122223F07F4304E04FF00000FDE8044571
:1045F000704712BA1BBA82FA4CF482EA0304A4FA96
:104600008CF5B5FA85F402FA04F203FA04F34FEAE2
:104610001260FDE80445A0EB136070470000000045
:10462000000000000000000000000000000000008A
:10463000000000000000000000000000000000007A
:1046400090F800F06DE9024520F007016FF0000CD2
:1046500010F0070491F820F040F049804FF000047A
:104660006FF00700D1E9002391F840F000F1080055
:1046700082FA4CF2A4FA8CF283FA4CF3A2FA8CF38D
:104680004BBBD1E9022382FA4CF200F10800A4FAF4
:104690008CF283FA4CF3A2FA8CF3E3B9D1E9042348
:1046A00082FA4CF200F10800A4FA8CF283FA4CF37F
:1046B000A2FA8CF37BB9D1E9062301F1200182FA39
:1046C0004CF200F10800A4FA8CF283FA4CF3A2FA3F
:1046D0008CF3002BC6D0002A04BF04301A4612BA4D
:1046E000B2FA82F2FDE8024500EBD2007047D1E950
:1046F000002304F00305C4F100004FEAC50514F0DF
:10470000040F91F840F00CFA05F562EA05021CBFAF
:1047100063EA050362464FF00004A9E7844641EAD4
:10472000000313F003036DD1403A41D351F8043B29
:1047300040F8043B51F8043B40F8043B51F8043B7B
:1047400040F8043B51F8043B40F8043B51F8043B6B
:1047500040F8043B51F8043B40F8043B51F8043B5B
:1047600040F8043B51F8043B40F8043B51F8043B4B
:1047700040F8043B51F8043B40F8043B51F8043B3B
:1047800040F8043B51F8043B40F8043B51F8043B2B
:1047900040F8043B51F8043B40F8043B51F8043B1B
:1047A00040F8043B51F8043B40F8043B403ABDD28A
:1047B000303211D351F8043B40F8043B51F8043B2C
:1047C00040F8043B51F8043B40F8043B51F8043BEB
:1047D00040F8043B103AEDD20C3205D351F8043BBB
:1047E00040F8043B043AF9D2043208D0D2071CBF87
:1047F00011F8013B00F8013B01D30B8803806046B0
:10480000704700BF082A13D38B078DD010F0030325
:104810008AD0C3F10403D21ADB071CBF11F8013B95
:1048200000F8013B80D331F8023B20F8023B7BE7E4
:10483000043AD9D3013A11F8013B00F8013BF9D20F
:104840000B7803704B7843708B78837060467047A9
:1048500053B94AB9002908BF00281CBF4FF0FF31E7
:104860004FF0FF3000F07AB9ADF1080C6DE904CEDD
:1048700000F006F8DDF804E0DDE9022304B070473B
:104880002DE9F0478C460D460446089E002B51D179
:104890008A4217466DD9B2FA82FEBEF1000F0BD0E4
:1048A000CEF1200C01FA0EF520FA0CFC02FA0EF7FC
:1048B0004CEA050C00FA0EF44FEA174A250CBCFB33
:1048C000FAF81FFA87F90AFB18CC45EA0C4508FBF1
:1048D00009F3AB420AD9ED1908F1FF3280F02381C8
:1048E000AB4240F22081A8F102083D44ED1AA4B287
:1048F000B5FBFAF00AFB105544EA054400FB09F940
:10490000A14509D9E41900F1FF3380F00A81A145DE
:1049100040F2078102383C44A4EB090440EA084015
:104920000021002E61D024FA0EF40023346073605D
:10493000BDE8F0878B4207D9002E54D0002186E8CD
:1049400021000846BDE8F087B3FA83F1002940F062
:104950008E80AB4202D3824200F2FA80841A65EB69
:1049600003050120AC46002E3FD086E81010BDE8BC
:10497000F08712B90127B7FBF2F7B7FA87FEBEF14D
:10498000000F34D1EB1B3A0C1FFA87FC0121B3FB5B
:10499000F2F8250C02FB183345EA03450CFB08F33B
:1049A000AB4207D9ED1908F1FF3002D2AB4200F259
:1049B000D1808046ED1AA3B2B5FBF2F002FB105590
:1049C00043EA05440CFB00FCA44507D9E41900F1B7
:1049D000FF3302D2A44500F2B8801846A4EB0C04C1
:1049E00040EA08409DE731463046BDE8F087CEF109
:1049F000200405FA0EF307FA0EF720FA04F83A0C31
:104A000025FA04F448EA0308B4FBF2F14FEA18452A
:104A100002FB11441FFA87FC45EA044501FB0CF335
:104A2000AB4200FA0EF409D9ED1901F1FF3080F024
:104A30008A80AB4240F2878002393D44EB1A1FFA6C
:104A400088F5B3FBF2F002FB103345EA034500FBA7
:104A50000CF3AB4207D9ED1900F1FF386FD2AB422E
:104A60006DD902383D44EB1A40EA01418FE7C1F1AC
:104A7000200722FA07F88B4005FA01F448EA0303FD
:104A800020FA07FE4FEA134CFD404EEA040EB5FB38
:104A9000FCF94FEA1E440CFB19551FFA83F844EA4F
:104AA000054509FB08F4AC4202FA01F200FA01FAEA
:104AB00008D9ED1809F1FF3043D2AC4241D9A9F130
:104AC00002091D442D1B1FFA8EFEB5FBFCF00CFBEA
:104AD00010554EEA054400FB08F8A04507D9E41834
:104AE00000F1FF3529D2A04527D902381C4440EAFD
:104AF0000940A4EB0804A0FB02894C45C6464D467C
:104B000015D312D056B1BAEB0E0364EB050404FAC8
:104B100007F7CB401F43CC40376074600021BDE8ED
:104B2000F0871846F8E69046E0E6C245EAD2B8EBD0
:104B3000020E69EB03050138E4E72846D7E7404653
:104B400091E78146BEE7014678E702383C4445E7F5
:104B5000084608E7A8F102083D442BE7704700BF6C
:104B600081F0004102E000BF83F0004330B54FEA1E
:104B700041044FEA430594EA050F08BF90EA020F8B
:104B80001FBF54EA000C55EA020C7FEA645C7FEA1E
:104B9000655C00F0E2804FEA5454D4EB5555B8BF41
:104BA0006D420CDD2C4480EA020281EA030382EAB2
:104BB000000083EA010180EA020281EA0303362D44
:104BC00088BF30BD11F0004F4FEA01314FF4801C17
:104BD0004CEA113102D0404261EB410113F0004F29
:104BE0004FEA03334CEA133302D0524263EB4303E0
:104BF00094EA050F00F0A780A4F10104D5F1200E7E
:104C00000DDB02FA0EFC22FA05F2801841F10001D8
:104C100003FA0EF2801843FA05F359410EE0A5F1AC
:104C200020050EF1200E012A03FA0EFC28BF4CF0DD
:104C3000020C43FA05F3C01851EBE37101F0004593
:104C400007D54FF0000EDCF1000C7EEB00006EEBA0
:104C50000101B1F5801F1BD3B1F5001F0CD349082A
:104C60005FEA30004FEA3C0C04F101044FEA445281
:104C700012F5800F80F09A80BCF1004F08BF5FEA08
:104C8000500C50F1000041EB045141EA050130BDE8
:104C90005FEA4C0C404141EB010111F4801FA4F18B
:104CA0000104E9D191F0000F04BF01460020B1FAE0
:104CB00081F308BF2033A3F10B03B3F120020CDA18
:104CC0000C3208DD02F1140CC2F10C0201FA0CF0F6
:104CD00021FA02F10CE002F11402D8BFC2F1200C5B
:104CE00001FA02F120FA0CFCDCBF41EA0C01904011
:104CF000E41AA2BF01EB0451294330BD6FEA04045A
:104D00001F3C1CDA0C340EDC04F11404C4F1200244
:104D100020FA04F001FA02F340EA030021FA04F356
:104D200045EA030130BDC4F10C04C4F1200220FAAD
:104D300002F001FA04F340EA0300294630BD21FAEB
:104D400004F0294630BD94F0000F83F4801306BFB1
:104D500081F480110134013D4EE77FEA645C18BFA5
:104D60007FEA655C29D094EA050F08BF90EA020F3C
:104D700005D054EA000C04BF1946104630BD91EA34
:104D8000030F1EBF0021002030BD5FEA545C05D137
:104D90004000494128BF41F0004130BD14F5800476
:104DA0003CBF01F5801130BD01F0004545F0FE41EA
:104DB00041F470014FF0000030BD7FEA645C1ABF1F
:104DC000194610467FEA655C1CBF0B46024650EA56
:104DD000013406BF52EA033591EA030F41F4002182
:104DE00030BD00BF90F0000F04BF0021704730B508
:104DF0004FF4806404F132044FF000054FF00001DD
:104E000050E700BF90F0000F04BF0021704730B59D
:104E10004FF4806404F1320410F0004548BF404272
:104E20004FF000013EE700BF42004FEAE2014FEAC7
:104E300031014FEA02701FBF12F07F4393F07F4FA2
:104E400081F06051704792F0000F14BF93F07F4FD4
:104E5000704730B54FF4607401F0004521F0004117
:104E600020E700BF50EA010208BF704730B54FF09D
:104E700000050AE050EA010208BF704730B511F0A2
:104E8000004502D5404261EB41014FF4806404F1DA
:104E900032045FEA915C3FF4DCAE4FF003025FEA5C
:104EA000DC0C18BF03325FEADC0C18BF033202EBE4
:104EB000DC02C2F1200300FA03FC20FA02F001FA3E
:104EC00003FE40EA0E0021FA02F11444C1E600BFDD
:104ED00070B54FF0FF0C4CF4E06C1CEA11541DBF90
:104EE0001CEA135594EA0C0F95EA0C0F00F0DEF85B
:104EF0002C4481EA030621EA4C5123EA4C5350EA40
:104F0000013518BF52EA033541F4801143F4801390
:104F100038D0A0FB02CE4FF00005E1FB02E506F021
:104F20000042E0FB03E54FF00006E1FB03569CF076
:104F3000000F18BF4EF0010EA4F1FF04B6F5007F7C
:104F400064F5407404D25FEA4E0E6D4146EB0606EE
:104F500042EAC62141EA55514FEAC52040EA5E5077
:104F60004FEACE2EB4F1FD0C88BFBCF5E06F1ED821
:104F7000BEF1004F08BF5FEA500E50F1000041EB58
:104F8000045170BD06F0004646EA010140EA020005
:104F900081EA0301B4EB5C04C2BFD4EB0C0541EA27
:104FA000045170BD41F480114FF0000E013C00F33C
:104FB000AB8014F1360FDEBF002001F0004170BD60
:104FC000C4F10004203C35DA0C341BDC04F1140479
:104FD000C4F1200500FA05F320FA04F001FA05F205
:104FE00040EA020001F0004221F0004110EBD370D2
:104FF00021FA04F642EB06015EEA430E08BF20EAFE
:10500000D37070BDC4F10C04C4F1200500FA04F3A0
:1050100020FA05F001FA04F240EA020001F0004132
:1050200010EBD37041F100015EEA430E08BF20EAA5
:10503000D37070BDC4F1200500FA05F24EEA020EED
:1050400020FA04F301FA05F243EA020321FA04F01C
:1050500001F0004121FA04F220EA020000EBD370D3
:105060005EEA430E08BF20EAD37070BD94F0000FD3
:105070000FD101F00046400041EB010111F4801F07
:1050800008BF013CF7D041EA060195F0000F18BFB8
:10509000704703F00046520043EB030313F4801FF4
:1050A00008BF013DF7D043EA0603704794EA0C0FAE
:1050B0000CEA135518BF95EA0C0F0CD050EA4106C4
:1050C00018BF52EA4306D1D181EA030101F0004141
:1050D0004FF0000070BD50EA410606BF1046194669
:1050E00052EA430619D094EA0C0F02D150EA013675
:1050F00013D195EA0C0F05D152EA03361CBF1046B6
:1051000019460AD181EA030101F0004141F0FE4154
:1051100041F470014FF0000070BD41F0FE4141F4D8
:10512000780170BD70B54FF0FF0C4CF4E06C1CEAD8
:1051300011541DBF1CEA135594EA0C0F95EA0C0F8D
:1051400000F0A7F8A4EB050481EA030E52EA033548
:105150004FEA013100F088804FEA03334FF0805569
:1051600045EA131343EA12634FEA022245EA111596
:1051700045EA10654FEA00260EF000419D4208BF47
:10518000964244F1FD0404F5407402D25B084FEAF4
:105190003202B61A65EB03055B084FEA32024FF4A0
:1051A00080104FF4002CB6EB020E75EB030E22BFFD
:1051B000B61A754640EA0C005B084FEA3202B6EBBD
:1051C000020E75EB030E22BFB61A754640EA5C006C
:1051D0005B084FEA3202B6EB020E75EB030E22BFFC
:1051E000B61A754640EA9C005B084FEA3202B6EBFD
:1051F000020E75EB030E22BFB61A754640EADC00BC
:1052000055EA060E18D04FEA051545EA16754FEA1D
:1052100006164FEAC30343EA52734FEAC2025FEA3B
:105220001C1CC0D111F4801F0BD141EA00014FF0CA
:1052300000004FF0004CB6E711F4801F04BF01439B
:105240000020B4F1FD0C88BFBCF5E06F3FF6AFAEB7
:10525000B5EB030C04BFB6EB020C5FEA500C50F147
:10526000000041EB045170BD0EF0004E4EEA1131CA
:1052700014EB5C04C2BFD4EB0C0541EA045170BDD1
:1052800041F480114FF0000E013C90E645EA060E15
:105290008DE60CEA135594EA0C0F08BF95EA0C0F43
:1052A0003FF43BAF94EA0C0F0AD150EA01347FF48B
:1052B00034AF95EA0C0F7FF425AF104619462CE762
:1052C00095EA0C0F06D152EA03353FF4FDAE1046C5
:1052D000194622E750EA410618BF52EA43067FF416
:1052E000C5AE50EA41047FF40DAF52EA43057FF4A6
:1052F000EBAE12E74FEA410212F5001215D211D5BA
:105300006FF47873B3EB625212D94FEAC12343F0C2
:10531000004343EA505311F0004F23FA02F018BF44
:10532000404270474FF00000704750EA013005D10D
:1053300011F0004008BF6FF0004070474FF00000D0
:10534000704700BF4FEA4102B2F1E04324BFB3F51A
:10535000001CDCF1FE5C0DD901F0004C4FEAC002EC
:105360004CEA5070B2F1004F40EB830008BF20F0D0
:105370000100704711F0804F21D113F13872BCBF8A
:1053800001F00040704741F480114FEA5252C2F1DF
:105390001802C2F1200C10FA0CF320FA02F018BF28
:1053A00040F001004FEAC1234FEAD32303FA0CFC7B
:1053B00040EA0C0023FA02F34FEA4303CCE77FEA0A
:1053C000625307D150EA01331EBF4FF0FE4040F454
:1053D0004000704701F0004040F0FE4040F4000003
:1053E000704700BF00000000000000000000000047
:1053F00001F0FF01102A2BDB10F0070F08D010F886
:10540000013B013A8B422DD010F0070F42B3F6D189
:10541000F0B441EA012141EA014122F007047FF0A2
:1054200000070023F0E80256083C85EA010586EAF9
:10543000010685FA47F5A3FA87F586FA47F6A5FA35
:1054400087F68EB9EED1F0BC01F0FF0102F0070241
:1054500032B110F8013B013A83EA010313B1F8D1EC
:105460000020704701387047002D06BF35460338CD
:10547000073815F0010F07D1013015F4807F02BF06
:10548000013015F4C03F0130F0BC0138704700BF57
:105490004FF0FF3C06E000BF4FF0010C02E000BF00
:1054A0004FF0010C4DF804CD4FEA410C7FEA6C5CE3
:1054B0004FEA430C18BF7FEA6C5C1BD001B050EA86
:1054C000410C0CBF52EA430C91EA030F02BF90EA71
:1054D000020F0020704710F1000F91EA030F58BF30
:1054E000994208BF90422CBFD8176FEAE37040F092
:1054F000010070474FEA410C7FEA6C5C02D150EA30
:10550000013C07D14FEA430C7FEA6C5CD6D152EAEA
:10551000033CD3D05DF8040B704700BF84461046AF
:1055200062468C461946634600E000BF01B5FFF7AE
:10553000B7FF002848BF10F1000F01BD4DF808ED7E
:10554000FFF7F4FF0CBF012000205DF808FB00BF4F
:105550004DF808EDFFF7EAFF34BF012000205DF8A9
:1055600008FB00BF4DF808EDFFF7E0FF94BF0120F6
:1055700000205DF808FB00BF4DF808EDFFF7CEFFF7
:1055800094BF012000205DF808FB00BF4DF808ED36
:10559000FFF7C4FF34BF012000205DF808FB00BF07
:1055A0004FEA410C7FEA6C5C02D150EA013C0AD11F
:1055B0004FEA430C7FEA6C5C02D152EA033C02D111
:1055C0004FF0000070474FF00100704700000000EE
:1055D00000B583B001900022042101980DF030FE47
:1055E0000346184603B05DF804FB00BF000000004E
:1055F00084B00390029101920093039B16221A60DB
:105600004FF0FF33184604B0704700BF00000000A1
:1056100084B003900291019200930023184604B0D5
:10562000704700BF00000000000000000000000004
:1056300084B00390029101920093009B184604B03D
:10564000704700BF000000000000000000000000E4
:1056500082B0019000910023184602B0704700BF4D
:1056600000B585B001900091009B1846FFF7B0FF90
:105670000390039B002B05D1019B0C221A604FF075
:10568000FF3300E0039B184605B05DF804FB00BF44
:1056900000B585B00390029101923C22002101984F
:1056A00018F098F8019B4FF400525A6000231846F6
:1056B00005B05DF804FB00BF000000000000000022
:1056C00082B0019000910123184602B0704700BFDC
:1056D0000FB400B583B00B4A0B490C480EF028FB01
:1056E00005AB0193019A049908480EF0C9F8084ADD
:1056F000054906480EF01CFB03B05DF804EB04B04E
:10570000704700BF58350208904B0208E452002051
:10571000944B0208000000000000000000000000A0
:105720002DE9F04F83B00190019B1D464FF000061C
:105730002B4634464FEA840C4CEA937C4FEA830BA9
:105740005B4664465B1944EB06044FEAC40A4AEA26
:10575000537A4FEAC3094B4654465B1B64EB06047D
:105760004FEA041848EA13781F013B4644465B1988
:1057700044EB0604220142EA137219010B46144657
:105780001946224640F2E7334FF00004CD1842EBB1
:105790000406284631464FF47A724FF00003FFF7B3
:1057A00057F803460C4618460FF052F903B0BDE80F
:1057B000F08F00BF000000000000000000000000AB
:1057C00000B583B0019000910822009901980DF076
:1057D00067FD0346184603B05DF804FB00000000B7
:1057E00000B587B001900091019B002B05D1009975
:1057F0000020FFF7E5FF03462BE0019B083B0493E5
:10580000049B5B680393009B03F00703002B02D10A
:10581000009B059304E0009BDB080133DB0005934C
:10582000039A059B9A4201D3019B12E00099002044
:10583000FFF7C6FF0290029B002B01D1002308E076
:10584000039A01990298FEF769FF01980DF000FE96
:10585000029B184607B05DF804FB00BF0000000083
:1058600000B583B001900091009B19460198FFF7A5
:10587000A7FF0346184603B05DF804FB00000000D4
:1058800000B583B00190019B002B02D001980DF070
:10589000DFFD03B05DF804FB000000000000000025
:1058A00082B00190024B9B69019A9A6102B07047E5
:1058B000A05C0020000000000000000000000000CC
:1058C00000B5CFB02FAB184600F0EAFE4A48FEF70D
:1058D000B7FE02462FAB4849184600F061FD2FABDA
:1058E0004649184600F0ECFD454A464946480EF048
:1058F0001FFA07AB00221A604448FEF7A1FE0346D8
:10590000194607AA00230293002301930023009362
:1059100013460C223D4800F053FA4D904D9B002B4E
:105920000DD107AB1B689B6819463948FFF7D0FEBD
:1059300008AB002118460AF0C3FB4D9003E04D99D7
:105940003448FFF7C5FE4D9B002B11D13248FFF7BD
:10595000BFFE05AB00221A6007AB1B68186807ABD7
:105960001B689B6808AA05A90AF0CAF94D9003E0D4
:105970004D992A48FFF7ACFE2148FEF761FE034629
:10598000ADF832311E492648FFF7A2FE4D9B002B91
:105990000ED12448FFF79CFE1948FEF751FE014640
:1059A000BDF83231204A164806F0D2FA4D9002E096
:1059B0001E48FFF78DFE4D9B002B16D108ABD3F888
:1059C000843019461648FFF783FE06AB00221A60A2
:1059D000BDF8321108AB06AA13480BF069F94B90D9
:1059E0004B990B48FFF774FE03E04D99104818F0EF
:1059F000E5FB4FB05DF804FB809D002080CD0020CA
:105A000080AD0020984B0208E4520020808D0020D9
:105A1000C44B02089C4B0208A84B0208B84B020872
:105A2000904B0208C84B020880BD0020D84B0208EA
:105A3000E84B020800000000000000000000000029
:105A400000B5B1B002AB184608F06AFF06AB002102
:105A500018460AF035FB02AB06A84FF001124FF4CE
:105A600000610BF06DF92F902F9B002B30D106AB0E
:105A70004FF480521849184608F0CAFB2E902E9910
:105A8000012300934FF48053144A134808F058F848
:105A90002D9006AB4FF480521149184608F0A8FC2F
:105AA0002E902E990D2300934FF480530D4A0C48ED
:105AB00008F046F82D900B490B48FFF709FE02ABA2
:105AC000184608F0BDFF06AB18460AF009FB00E0D7
:105AD00000BF31B05DF804FB805D0020807D0020B8
:105AE000806D0020808D0020904B02080000000097
:105AF00000B583B001900D48FFF7D2FE0C4B1B7828
:105B0000012B03D0032B07D0002B0AE0FFF798FFEF
:105B1000074B00221A7004E0FFF7D2FE044B00226C
:105B20001A706420FFF7FCFDE8E700BF004C020894
:105B3000A0CD0020000000000000000000000000D8
:105B400000B587B001904648FFF7AAFE0023ADF8E4
:105B5000163000230493434B5B69ADF80A30BDF85F
:105B60000A30002B77D00023ADF80C306DE0052112
:105B70003D4814F02DF903468DF809309DF80930A1
:105B80002A2B12D1049B002B0FD000230493002357
:105B9000ADF816309DF80F30332B50D13348FFF756
:105BA00097FD334B03221A704AE09DF809302A2BE7
:105BB0000CD1049B002B09D105212B4814F008F9C6
:105BC00003468DF80F300123049339E0049B002B2A
:105BD0000FD09DF80F30312B0BD1BDF81630254971
:105BE0009DF80920CA54BDF816300133ADF81630BF
:105BF00026E0049B002B0FD09DF80F30322B0BD1E9
:105C0000BDF816301C499DF80920CA54BDF816305D
:105C10000133ADF8163013E0049B002B10D09DF833
:105C20000F30332B0CD1BDF8163014499DF80920E4
:105C3000CA54BDF816300133ADF8163000E000BF8D
:105C4000BDF80C300133ADF80C30BDF80C20BDF8B8
:105C50000A309A428BD34FF47A700EF0F9FE7AE74D
:105C6000084C0208E4520020F0520020104C0208B8
:105C7000A0CD0020808D0020809D002080AD0020E0
:105C800000B583B000230093094B802242F29001BB
:105C900008480EF055FE00230093074B80224FF476
:105CA000E87106480EF04CFE03B05DF804FB00BF3F
:105CB000F15A0008A8CD0020415B000838EE002012
:105CC00082B00190024B9B69019A9A6102B07047C1
:105CD000A05C0020000000000000000000000000A8
:105CE00010B5CEB001AB18601948FFF7E9FF194BAA
:105CF0001B7819461848FFF7EBFC184A174B5B69ED
:105D000083F00203536110A4D4E900344CAAC2E921
:105D1000003403AB24220021184617F05BFD03ABCF
:105D20001A460F490F4815F05FFC03AB0CA80E4A4A
:105D3000FF2119F0EFF80CAB184618F0A1FA4CF25D
:105D400050300EF085FED2E7077FAC1E708C050048
:105D5000244C0208A0CD0020304C0208000802406C
:105D6000904B0208404C02084C4C02080000000016
:105D700000B583B013F01CFE0EF07AF80B490C4806
:105D800012F0C6FE4FF47A70FFF7CAFC00230093AE
:105D9000084B81224FF4E87107480EF0D1FDFFF760
:105DA0006FFF4FF47A70FFF7BBFCFAE768440020FE
:105DB000E4520020E15C000808F000200000000030
:105DC00000B591B0039002910192009300230F93CC
:105DD00000230E93029B039A13440B9300230A9310
:105DE000029B099300230893019B112B6CD801A2FD
:105DF00052F823F03D5E0008C95E0008595E0008B5
:105E0000675E00084B5E00083D5E0008C95E000842
:105E1000C95E0008755E0008835E0008915E000898
:105E20009F5E0008BB5E0008C95E0008C95E0008EE
:105E30003D5E0008C95E0008AD5E00088C4B1B6823
:105E40000F938C4B1B680E9344E08B4B1B680F9396
:105E50008A4B1B680E933DE0894B1B680F93894B5F
:105E60001B680E9336E0884B1B680F93874B1B68AB
:105E70000E932FE0864B1B680F93864B1B680E9387
:105E800028E0854B1B680F93844B1B680E9321E021
:105E9000834B1B680F93834B1B680E931AE0824B56
:105EA0001B680F93814B1B680E9313E0804B1B689C
:105EB0000F93804B1B680E930CE07F4B1B680F9376
:105EC0007E4B1B680E9305E0774B1B680F93774B57
:105ED0001B680E93099B1A460F99039800F050F91E
:105EE0000D900D9B002B3ED1019B012B3BD16E4BA6
:105EF0001B680F9A9A4206D1714B1B680F93714B26
:105F00001B680E93E6E76E4B1B680F9A9A4206D108
:105F10006D4B1B680F936D4B1B680E93DAE76A4B52
:105F20001B680F9A9A4206D15D4B1B680F935D4B1D
:105F30001B680E93CEE75A4B1B680F9A9A4206D104
:105F4000554B1B680F93554B1B680E93C2E7524B82
:105F50001B680F9A9A4206D1554B1B680F93554BFD
:105F60001B680E93B6E70D9B002B01D1584B00E147
:105F70000F98FEF765FB02460D9B13440D930D9B96
:105F80005A1C0B9B9A4202D36FF00303F1E00D9B66
:105F90001B780A2B03D10D9B01330D9315E00D9B4C
:105FA00001331B780A2B03D10D9B02330D930CE0B8
:105FB000139B002B06D00D9B02331A46039BD21A6B
:105FC000139B5A676FF00303D3E0019B012B0DD1A4
:105FD000149B002B0AD0324B1B680F9A9A420CBFBD
:105FE00001230023DBB21A46149B1A60099B1A4650
:105FF0000E99039800F0C4F80790079B002B08D176
:10600000139B002B02D0139B029A5A676FF0030375
:10601000AFE00E98FEF714FB0246079B13440C9367
:106020000C9A0B9B9A4255D20C9B1B780A2B03D1DE
:106030000C9B01330C934DE00C9B5A1C0B9B9A421A
:1060400008D20C9B01331B780A2B03D10C9B023323
:106050000C933FE0139B002B06D00C9B02331A4697
:10606000039BD21A139B5A676FF0030381E000BFB2
:106070000044002004440020204400202444002048
:106080001044002014440020184400201C44002028
:10609000084400200C4400205044002054440020B8
:1060A000484400204C440020284400202C44002078
:1060B0006044002064440020584400205C440020D8
:1060C000384400203C440020404400204444002048
:1060D0008CFEFFFF139B002B04D00C9A039BD21A5B
:1060E000139B5A67079A0D9BD31A0693069A099B2E
:1060F0009A4202DC069B002B02DC6FF0030338E0BF
:106100000699129B019A009800F072F80A900A9B77
:10611000002B01DA0A9B2CE0009B1B680593069973
:10612000059B1A68059B08330D9805F011FF03467F
:10613000002B02DA6FF003031BE0104B1B680F9A71
:106140009A4215D1089B002B12D1059B1A68059B1A
:106150009B681946104609F0ABFD0A900A9B002B7C
:1061600001DA0A9B05E00A9A059B9A60002300E089
:106170000023184611B05DF804FB00BF384400202E
:1061800000B587B00390029101920298FEF758FA89
:106190000590059B002B17D1039B1EE0039B1A78EB
:1061A000029B1B789A4209D1059A0299039817F02D
:1061B000D5FF0346002B01D1039B0EE0039B013367
:1061C0000393019B013B0193019A059B9A4203D3E0
:1061D000039B1B78002BE1D10023184607B05DF824
:1061E00004FB00BF000000000000000000000000F1
:1061F00000B589B003900291019200936FF0AC0357
:106200000793039B002B61D000230693019B0B2B6C
:106210002CD801A252F823F04F6200086D620008EA
:106220006D6200086D62000855620008496200084E
:106230006D6200086D6200086D6200085B62000814
:1062400061620008676200080123069310E00223E0
:1062500006930DE0162306930AE01523069307E044
:106260002523069304E00A23069301E00323069303
:10627000029B143319460098FFF7F2FA0246039B7B
:106280001A60039B1B68002B02D16FF497731EE00A
:10629000039B1868029B14331A46002117F09AFAE0
:1062A000039B1B680593059B019ADA60059B069A80
:1062B0001A61059B009A5A60059B03F11402059B25
:1062C0001A60059B029A9A6000230793079B184661
:1062D00009B05DF804FB00BF0000000000000000F2
:1062E00000B589B003900291019200230793039BAC
:1062F000002B05D0029B002B05D1019B002B02D067
:106300006FF0AC0348E0039B20330693039B1B6EA6
:106310003F2B3DD96FF083033EE0039B1B6EC3F11F
:1063200040031946019801F08BF80590039B1B6E02
:10633000069A1344059A02991846FEF7EFF9039B53
:106340001A6E059B1A44039B1A66029A059B134416
:106350000293019A059BD31A0193039B1B6E402B5A
:1063600016D1039B03F12000039B203340221946E2
:1063700001F03EF8039801F0DBF80790079B002B33
:1063800009D14021039801F043FC039B00221A66C7
:10639000019B002BC1D1079B184609B05DF804FB97
:1063A00000B585B0039002910192019A0299039879
:1063B000FFF796FF0346184605B05DF804FB00BFE3
:1063C00000B585B00190019B20330393019B002B06
:1063D00002D16FF0AC0369E0019B1B6E1946019876
:1063E00001F016FC019B1B6E591C019A1166039A61
:1063F000134480221A70019B1B6E382B23D9019BFA
:106400001B6E039AD018019B1B6EC3F140031A4602
:10641000002117F0DFF9019B40221A66019B03F16E
:106420002000019B20334022194600F0E1FF019833
:1064300001F07EF80290029B002B01D0029B35E018
:10644000019B00221A66019B1B6E039AD018019BC8
:106450001B6EC3F138031A46002117F0BBF9019BEC
:106460005B6E5A0F019B9B6EDB001A44019B9A6680
:10647000019B5B6EDA00019B5A66019B03F12000D1
:10648000019B20334022194600F0B2FF039B3833B2
:10649000019A683212681A60039B3C33019A643295
:1064A00012681A60019801F043F80346184605B0D7
:1064B0005DF804FB00000000000000000000000088
:1064C00000B585B001900091019B002B02D0009B8C
:1064D000002B02D16FF0AC0318E00198FFF770FFBA
:1064E0000390039B002B01D0039B0FE0019B0199BC
:1064F0002022184600F07CFF019B202219460098BC
:10650000FEF70CF9019800F0ABFF0346184605B002
:106510005DF804FB00000000000000000000000027
:1065200084B0019000230393019B002B02D16FF0F4
:10653000AC0321E0019B124A1A60019B114A5A6088
:10654000019B114A9A60019B104ADA60019B104A34
:106550001A61019B0F4A5A61019B0F4A9A61019B84
:106560000E4ADA61019B00221A66019B00225A66DC
:10657000019B00229A66039B184604B0704700BF37
:10658000D89E05C107D57C3617DD703039590EF716
:10659000310BC0FF11155868A78FF964A44FFABEDC
:1065A00000B587B003900291019200230593039BED
:1065B000002B02D16FF0AC030CE0039B029ADA6669
:1065C0000398FFF7ADFF0590059B002B01D0059BBD
:1065D00000E0059B184607B05DF804FB00000000D2
:1065E00000B583B001906FF0010200210198FFF720
:1065F000D7FF0346184603B05DF804FB0000000017
:1066000000B587B0039002910192039B002B05D047
:10661000029B002B05D1019B002B02D06FF0AC0335
:1066200006E0019A02990398FFF75AFE0590059B30
:10663000184607B05DF804FB0000000000000000F1
:1066400000B585B001900091019B002B02D0009B0A
:10665000002B02D16FF0AC0318E00198FFF7B0FEF9
:106660000390039B002B01D0039B0FE0019B01993A
:106670001C22184600F0BCFE019B1C221946009803
:10668000FEF74CF80198FFF74BFF0346184605B09C
:106690005DF804FB000000000000000000000000A6
:1066A00000B583B001906FF001020021019800F065
:1066B0001FFF0346184603B05DF804FB000000000E
:1066C00082B0019002B0704700000000000000009E
:1066D00000B585B001900091009B1C4A934205D8FB
:1066E0000099019805F054FA03462BE0019804F054
:1066F0003FFA002303931EE0019A0421019804F05D
:10670000F7FB0290029B002B01D0029B1AE0019B39
:10671000DB68019AD2681168009A120F0A431A6066
:10672000009B1B010093019B1B685A1C019B1A6074
:10673000039B01330393039B072BDDDD019804F0DA
:1067400037FA0023184605B05DF804FBFEFFFF0F83
:1067500000B58BB003900291019205AB184603F08F
:106760004FFF0990099B002B01D0099B1AE005AB54
:106770001946039802F05CFC0990099B002B05D098
:1067800005AB184603F054FF099B0BE005AB019ADB
:106790000299184605F024FA099005AB184603F053
:1067A00047FF099B18460BB05DF804FB0000000092
:1067B00000B58BB0039002910192019B5A68039B34
:1067C0001B6801339A420CDA039B1B68013319469C
:1067D000019804F00DF90590059B002B01D0059B55
:1067E0009EE0039B9B68012B1ED1039B1B68012B22
:1067F00005DC039BDB681A68029B9A4214D3039B57
:1068000000229A60019A0299039800F091F805908D
:10681000019B01229A60019B9A68039B9A600198F0
:1068200004F0C6F9059B7BE0019B1B680493019B68
:1068300000229A60039BDB680893019BDB68079347
:10684000039B9B68002B43D1089B1A1D08921A6872
:10685000029B1A44079B1A60079B1B681B0F069339
:10686000079B1A1D07921A6822F070421A600123D2
:10687000099315E0089B1A1D08921A68069B1A4492
:10688000079B1A60079B1B681B0F0693079B1A1D2B
:1068900007921A6822F070421A60099B013309932B
:1068A000039B1A68099B9A42E4DC019B5A68099B86
:1068B0009A4207DD099B01330993079B1A1D079232
:1068C000069A1A60039B1B685A1C019B1A601DE004
:1068D000019B01221A60039B1B68012B09D1079BB6
:1068E0001A1D0792039AD268126802998A1A1A60CE
:1068F00004E0079B1A1D0792029A1A60012309936C
:1069000004E0079B1A1D079200221A60099B5A1C7B
:106910000992049A9342F4DB019804F049F90023A8
:1069200018460BB05DF804FB0000000000000000FA
:1069300000B58BB0039002910192019B5A68039BB2
:106940001B6801339A420CDA039B1B68013319461A
:10695000019804F04DF80590059B002B01D0059B94
:1069600092E0039B9B68012B14D1039B00229A6049
:10697000019A02990398FFF71BFF0590019B0122E2
:106980009A60019B9A68039B9A60019804F010F941
:10699000059B79E0019B1B680493039BDB680993CB
:1069A000019BDB680893039B1B68012B05D1039BAC
:1069B000DB681A68029B9A4203D9039B1B68002B71
:1069C0001AD1039B1B68012B08D1089B1A1D089242
:1069D000099A126802998A1A1A6004E0089B1A1D23
:1069E0000892029A1A6001230693019B01229A6081
:1069F000019B01221A603DE0019B00229A60039BEB
:106A00001A68019B1A60099B1A1D09921A68029B59
:106A1000D21A089B1A60089B1B68DB0F0793089B20
:106A20001A1D08921A6822F070421A600123069318
:106A300015E0099B1A1D09921A68079BD21A089B38
:106A40001A60089B1B68DB0F0793089B1A1D0892AE
:106A50001A6822F070421A60069B01330693039B6A
:106A60001A68069B9A42E4DC04E0089B1A1D08920F
:106A700000221A60069B5A1C0692049A9342F4DB89
:106A8000019804F095F8002318460BB05DF804FB5C
:106A900086B0019000230493019B1B68002B01D159
:106AA00000233AE00023059302E0059B01330593A0
:106AB000019B1A68059B9A4207DD019BDA68059BDA
:106AC0009B0013441B68002BEFD0019BDB68002B5D
:106AD00006D0019BDA68059B9B0013441B68049356
:106AE000059A1346DB009B1A9B000593049B03F059
:106AF0000103002B10D1049B03F00F030393084AFA
:106B0000039B52F82330059A13440593049B1B09F9
:106B10000493039B002BEED0059B184606B07047EC
:106B200050460208000000000000000000000000C5
:106B300084B001900091019B002B05D0019B5A1E4F
:106B4000019B1340002B01D0002314E0002303938A
:106B50000DE00122039B9A40019B9A4204D1009BC5
:106B6000039A1A60012306E0039B01330393039BFE
:106B70001B2BEEDD0023184604B070470000000018
:106B8000F0B58FB0039002910192009300230A9315
:106B9000029B002B02D16FF00203DCE0029B012B71
:106BA00003D0039B1B68002B10D1009B002B02D04D
:106BB000009B00221A60019B002B05D001990398CD
:106BC00003F0AEFE0346C6E00023C4E005AB194661
:106BD0000298FFF7ADFF0346012B1AD1009B002B53
:106BE0000AD0039BDB681A68059B012101FA03F3B5
:106BF000013B1A40009B1A60019B002B07D00599AE
:106C00000023019A039803F033FF0346A3E0002317
:106C1000A1E0029B032B06D1009A0199039802F090
:106C2000E7FA034697E0019B002B13D0039B1A68F9
:106C300006AB1146184602F08BFB0A900A9B002B0C
:106C400001D00A9B87E0039B1B680693039B9B680C
:106C5000089309E006AB184603F0D2FC0A900A9BA1
:106C6000002B01D00A9B76E04FF000024FF00003AA
:106C7000CDE90C23039B1B68013B059351E0DDE943
:106C80000C231D0745EA12151407039BDA68059BC0
:106C90009B0013441B681A464FF0000342EA0402AB
:106CA00043EA0503CDE90C23029B1A464FF000038B
:106CB000DDE90C01994208BF904224D3029B1A4699
:106CC0004FF00003DDE90C01FDF7C2FD02460B4663
:106CD00013460B930B9B18464FF00001029B1A467C
:106CE0004FF0000302FB01F700FB03F63E44A0FB5C
:106CF0000223F1180B46DDE90C01821A61EB030354
:106D0000CDE90C2301E000230B93019B002B05D060
:106D1000099A059B9B0013440B9A1A60059B013B43
:106D20000593059B002BAADA009B002B02D00C9A3E
:106D3000009B1A60019B002B08D006AB184603F09D
:106D400037FF06AB0199184603F05AFF06AB184609
:106D500003F06EFC0A9B18460FB0F0BD0000000067
:106D600000B585B0039002910192019B0022029927
:106D70000398FFF705FF0346184605B05DF804FBCE
:106D800000B595B0039002910192019B00221A6018
:106D90000121029804F0C4FE0346012B02D06FF0DB
:106DA00002038FE00DAB0399184603F099FD129092
:106DB000129B002B01D0129B84E00DAA0DAB012188
:106DC0001846FFF7B5FD1290129B002B75D10DAA46
:106DD00005AB1146184603F083FD1290129B002B61
:106DE0006BD105AB1846FFF753FE119005AA05A815
:106DF0000023119903F03CFE1290129B002B58D1F6
:106E000009AB184603F0FCFB1290129B002B50D1EB
:106E100009AB05A9039A029804F07AF91290129B23
:106E2000002B42D109AB0121184604F079FE03463C
:106E3000002B37D00DAA09AB1146184604F048FEC6
:106E40000346002B2ED00123139314E009AA09ABAB
:106E500003991846FFF77CFC1290129B002B24D15B
:106E600009AB0121184604F05BFE0346002B1CD041
:106E7000139B01331393119B5A1E139B9A4208DBF9
:106E80000DAA09AB1146184604F022FE0346002B5A
:106E9000DCD10DAA09AB1146184604F019FE0346D1
:106EA000002B02D1019B01221A6009AB184603F0A6
:106EB000BFFB05AB184603F0BBFB0DAB184603F058
:106EC000B7FB129B184615B05DF804FB00000000EC
:106ED00000B587B001900091009B00221A6000234A
:106EE000059319E0104A059B52F8233003AA19466E
:106EF0000198FFF735FF0490049B002B01D0049B01
:106F00000EE0039B002B04D1009B01221A6000239A
:106F100006E0059B01330593059BFF2BE2DD002373
:106F2000184607B05DF804FB904602080000000018
:106F300000B589B00390029101920093039B002B4E
:106F400002D0019B002B02D16FF002037BE0029B79
:106F5000002B05DA01230793029B5B42029301E0B9
:106F600000230793029B012B03DD029BB3F5007FF7
:106F700002DD6FF0020366E002990098FEF770FCF4
:106F80000690069B002B02D16FF001035BE0029B91
:106F90001A460021069816F01DFC029B1A46069917
:106FA000019807F0CDFC0590059B002B04D00698B6
:106FB000FEF766FC059B46E0069B1B7863F03F03EB
:106FC000DAB2069B1A70029B013B069A1344029A9E
:106FD000013A06990A44127851B20120079A0240F8
:106FE000002A01D0032200E001220A4352B2D2B2A9
:106FF0001A70029A0699039803F03AFF0590059BD0
:10700000002B04D00698FEF73BFC059B1BE004AB6D
:107010001A460821039800F01BF80590059B002BE9
:1070200004D00698FEF72CFC059B0CE0049B002B7B
:10703000B3D0029B1A460021069816F0CBFB0698A7
:10704000FEF71EFC0023184609B05DF804FB00BFE4
:1070500000B58DB0039002910192019B00221A604D
:10706000029B002B03DD029BB3F5807F02DD6FF0F6
:1070700002035EE000230B9312E0304A0B9B52F8B0
:1070800023301946039804F04BFD0346002B04D12E
:10709000019B01221A6000234BE00B9B01330B93F1
:1070A0000B9BFF2BE9DD05AB19460398FFF710FF9B
:1070B0000A900A9B002B01D00A9B3AE0059B012B0A
:1070C00001D1002335E006AB184603F099FA0A9087
:1070D0000A9B002B01D00A9B2BE000230B931CE0A2
:1070E000164A0B9B52F8232006AB1146184604F0B3
:1070F0004FFD0A900A9B002B16D105AA06AB194634
:107100000398FFF73DFE0A900A9B002B0CD1059BCC
:10711000002B09D00B9B01330B930B9A029B9A42D5
:10712000DEDB019B01221A6006AB184603F080FAF1
:107130000A9B18460DB05DF804FB00BF904602089C
:1071400000B591B005900491039207A90BA8002304
:107150000193002300930023002205F099FC0F9077
:107160000F9B002B01D00F9B40E00BAB1A460499FC
:10717000059800F045F80F900F9B002B2DD1049936
:10718000059804F055FC0346B3F1FF3F11D107AA5F
:107190000BA90023059804F06BFD0F900F9B002BAB
:1071A0001BD107AB039A1946049801F069FF0F90B1
:1071B00010E007AA0BA90023049804F059FD0F90D2
:1071C0000F9B002B09D107AB039A1946059801F0D4
:1071D00057FF0F90039B00229A600BAB184603F0F9
:1071E00027FA07AB184603F023FA0F9B184611B095
:1071F0005DF804FB0000000000000000000000003B
:1072000000B591B0039002910192039B1B68002B83
:1072100005D10199029804F023F80346ACE0029BE3
:107220001B68002B05D10199039804F019F8034657
:10723000A2E008AB0399184603F052FB0F900F9B96
:10724000002B01D00F9B97E004AB0299184603F086
:1072500047FB0F900F9B002B40F089800023069383
:10726000069B0A9308AB1846FFF712FC0E9004AB7E
:107270001846FFF70DFC0D900D9A0E9B9342A8BF88
:1072800013460C930C9B002B13DD08AA08A80023BF
:107290000C9903F0EDFB0F900F9B002B63D104AA18
:1072A00004A800230C9903F0E3FB0F900F9B002B25
:1072B00059D10E9A0C9B9A420BD00E9A0C9BD11A64
:1072C00008AA08A8002303F0D3FB0F900F9B002B04
:1072D00049D10D9A0C9B9A4233D00D9A0C9BD11A2E
:1072E00004AA04A8002303F0C3FB0F900F9B002BFC
:1072F00039D126E004AA08AB1146184604F098FBE1
:107300000346012B05D104AA08AB1146184603F029
:1073100077FC04AA08A904AB184600F0E9FD0F9019
:107320000F9B002B1FD104AB1846FFF7B1FB0146A2
:1073300004AA04A8002303F09BFB0F900F9B002BD3
:1073400011D1049B002BD5D108AB019A0C9918469A
:1073500003F0CEFD0F900F9B002B04D1019B002268
:107360009A6000230F9308AB184603F061F904AB51
:10737000184603F05DF90F9B184611B05DF804FB49
:1073800082B001900091019A009BC3F1200362FA40
:1073900003F3184602B07047000000000000000030
:1073A00082B001900091019A009B62FA03F31846A3
:1073B00002B0704700000000000000000000000064
:1073C00000B583B00190019B1B0A03F0FF12019BE3
:1073D0001B0203F0FF231343019310210198FFF7D1
:1073E000CFFF0346184603B05DF804FB0000000021
:1073F00010B586B0039002910192019B9B08049303
:107400000023059310E0059B9B00039AD418059B6D
:107410009B00029A13441B681846FFF7D1FF0346EE
:107420002360059B01330593059A049B9A42EAD396
:1074300006B010BD000000000000000000000000C9
:1074400082B001900091019A009B934228BF13469D
:10745000184602B0704700BF0000000000000000A6
:1074600000B585B0019000230393019B002B02D14E
:107470006FF0AC0327E0019B20220021184616F094
:10748000A9F9019B124A1A60019B124A5A60019B9A
:10749000114A9A60019B114ADA60019B104A1A61F5
:1074A000019B104A5A61019B0F4A9A61019B0F4A46
:1074B000DA61019B00221A66019B00225A66019B39
:1074C00000229A66039B184605B05DF804FB00BFD6
:1074D00067E6096A85AE67BB72F36E3C3AF54FA565
:1074E0007F520E518C68059BABD9831F19CDE05B91
:1074F00000B587B003900291019200230593039B8E
:10750000002B02D16FF0AC030CE0039B029ADA6609
:107510000398FFF7A5FF0590059B002B01D0059B65
:1075200000E0059B184607B05DF804FB0000000072
:1075300070B58EB001904FF480710020FEF790F985
:107540000C900C9B002B02D16FF07C0359E30023BD
:107550000D930CE0019B0D9A53F822200D9B9B008C
:107560000EA90B4443F8302C0D9B01330D930D9B5A
:10757000072BEFDD00230D930CE00D9B9B000C9A75
:107580001344019A0D99083152F821201A600D9B7D
:1075900001330D930D9B0F2BEFDD10230D9366E050
:1075A0000D9B9B000C9AD4180D9B03F18043023B6A
:1075B0009B000C9A13441B6811211846FFF7F0FE3C
:1075C00005460D9B03F18043023B9B000C9A13443C
:1075D0001B6813211846FFF7E3FE034685EA030202
:1075E0000D9B03F18043023B9B000C990B441B68ED
:1075F0009B0A5A400D9B03F18043073B9B000C996B
:107600000B441B68D5180D9B03F180430F3B9B0077
:107610000C9A13441B6807211846FFF7C1FE064663
:107620000D9B03F180430F3B9B000C9A13441B6896
:1076300012211846FFF7B4FE034686EA03020D9BAB
:1076400003F180430F3B9B000C990B441B68DB0844
:107650005340EA180D9B03F18043103B9B000C99AB
:107660000B441B68134423600D9B01330D930D9B4A
:107670003F2B95DD00230D93A3E2099C069B062179
:107680001846FFF78DFE0546069B0B211846FFF7AF
:1076900087FE03465D40069B19211846FFF780FED2
:1076A00003466B40E21808990698079C089B6340C4
:1076B00003404B401A44BD490D9B51F823301A44F6
:1076C0000D9B9B000C990B441B6813440B93029B6E
:1076D00002211846FFF764FE0446029B0D2118465E
:1076E000FFF75EFE03465C40029B16211846FFF73B
:1076F00057FE034684EA03020299039B1943049B45
:1077000019400298039B03400B4313440A93059AC4
:107710000B9B134405930B9A0A9B13440993089CF3
:10772000059B06211846FFF73BFE0546059B0B21EE
:107730001846FFF735FE03465D40059B19211846A4
:10774000FFF72EFE03466B40E21807990598069C4A
:10775000079B634003404B401A440D9B0133934900
:1077600051F823301A440D9B01339B000C990B44B4
:107770001B6813440B93099B02211846FFF710FE68
:107780000446099B0D211846FFF70AFE03465C409C
:10779000099B16211846FFF703FE034684EA0302FD
:1077A0000999029B1943039B19400998029B0340C6
:1077B0000B4313440A93049A0B9B134404930B9AB0
:1077C0000A9B13440893079C049B06211846FFF765
:1077D000E7FD0546049B0B211846FFF7E1FD034634
:1077E0005D40049B19211846FFF7DAFD03466B4004
:1077F000E21806990498059C069B634003404B40A1
:107800001A440D9B0233694951F823301A440D9BE9
:1078100002339B000C990B441B6813440B93089B89
:1078200002211846FFF7BCFD0446089B0D211846AF
:10783000FFF7B6FD03465C40089B16211846FFF78C
:10784000AFFD034684EA03020899099B1943029B92
:1078500019400898099B03400B4313440A93039A69
:107860000B9B134403930B9A0A9B13440793069CA8
:10787000039B06211846FFF793FD0546039B0B214A
:107880001846FFF78DFD03465D40039B19211846FE
:10789000FFF786FD03466B40E21805990398049CA8
:1078A000059B634003404B401A440D9B03333F4903
:1078B00051F823301A440D9B03339B000C990B4461
:1078C0001B6813440B93079B02211846FFF768FDC2
:1078D0000446079B0D211846FFF762FD03465C40F6
:1078E000079B16211846FFF75BFD034684EA030257
:1078F0000799089B1943099B19400798089B034067
:107900000B4313440A93029A0B9B134402930B9A62
:107910000A9B13440693059C029B06211846FFF719
:107920003FFD0546029B0B211846FFF739FD034634
:107930005D40029B19211846FFF732FD03466B405C
:10794000E21804990298039C049B634003404B4057
:107950001A440D9B0433154951F823301A440D9BEA
:1079600004339B000C990B441B6813440B93069B38
:1079700002211846FFF714FD0446069B0D21184608
:10798000FFF70EFD03465C40069B16211846FFF7E5
:1079900007FD034684EA03020699079B1943089BE7
:1079A00019400698079B03400B4301E0904A0208E8
:1079B00013440A93099A0B9B134409930B9A0A9B4D
:1079C00013440593049C099B06211846FFF7E8FC25
:1079D0000546099B0B211846FFF7E2FC03465D4074
:1079E000099B19211846FFF7DBFC03466B40E218A0
:1079F00003990998029C039B634003404B401A443F
:107A00000D9B0533804951F823301A440D9B0533F3
:107A10009B000C990B441B6813440B93059B02219C
:107A20001846FFF7BDFC0446059B0D211846FFF7DD
:107A3000B7FC03465C40059B16211846FFF7B0FCD7
:107A4000034684EA03020599069B1943079B1940E4
:107A50000598069B03400B4313440A93089A0B9B1B
:107A6000134408930B9A0A9B13440493039C089BAA
:107A700006211846FFF794FC0546089B0B21184683
:107A8000FFF78EFC03465D40089B19211846FFF75F
:107A900087FC03466B40E21802990898099C029BF8
:107AA000634003404B401A440D9B0633564951F83E
:107AB00023301A440D9B06339B000C990B441B6822
:107AC00013440B93049B02211846FFF769FC0446FC
:107AD000049B0D211846FFF763FC03465C40049BA2
:107AE00016211846FFF75CFC034684EA030204995A
:107AF000059B1943069B19400498059B03400B43C3
:107B000013440A93079A0B9B134407930B9A0A9BFF
:107B100013440393029C079B06211846FFF740FC81
:107B20000546079B0B211846FFF73AFC03465D40CC
:107B3000079B19211846FFF733FC03466B40E218F8
:107B400009990798089C099B634003404B401A44DD
:107B50000D9B07332C4951F823301A440D9B0733F2
:107B60009B000C990B441B6813440B93039B02214D
:107B70001846FFF715FC0446039B0D211846FFF736
:107B80000FFC03465C40039B16211846FFF708FCD8
:107B9000034684EA03020399049B1943059B194099
:107BA0000398049B03400B4313440A93069A0B9BD0
:107BB000134406930B9A0A9B134402930D9B0833BC
:107BC0000D930D9B3F2B7FF758AD00230D9311E0D4
:107BD000019B0D9A53F822200D9B9B000EA90B448C
:107BE00053F8303CD118019B0D9A43F822100D9B9D
:107BF00001330D930D9B072BEADD0C98FDF740FE3A
:107C0000002318460EB070BD904A02080000000024
:107C100084B001900091019B5B6E0393019B5A6EAF
:107C2000009B1A44019B5A66019B5A6E039B9A4221
:107C300004D2019B9B6E5A1C019B9A6604B070474C
:107C400000B58BB001900091009B5A68019B1B68A6
:107C50009A420BDA019B1B681946009802F0C8FE95
:107C60000590059B002B01D0059B59E0009B1B68EC
:107C70000493019B1A68009B1A60019BDA68009BC1
:107C80001B6803F18043013B9B0013440793009B57
:107C9000DA68009B1B6803F18043013B9B0013449F
:107CA000069300230893009B1B68013B099315E092
:107CB000079B1B6803F001030393069B1A1F0692A0
:107CC000079A111F079112685108089AD2060A43B1
:107CD0001A60039B0893099B013B0993099B002BA6
:107CE000E6DA009BDA68009B1B689B00134406934E
:107CF000009B1B68099307E0069B1A1D0692002251
:107D00001A60099B01330993099A049B9A42F3DB99
:107D1000019B9A68009B9A60009802F049FF00233B
:107D200018460BB05DF804FB0000000000000000E6
:107D300000B589B0039002910192039B9B68069362
:107D4000029B9B680593069A059B9A4209D1019B69
:107D5000069A9A60019A0299039800F029F8079010
:107D60001AE00299039803F063FE0346B3F1FF3F64
:107D700009D1019B059A9A60019A0399029800F033
:107D8000B7F8079008E0019B069A9A60019A029959
:107D9000039800F0ADF80790079B184609B05DF80E
:107DA00004FB00BF00000000000000000000000015
:107DB00000B58FB0039002910192039B1A68029B59
:107DC0001B689A4208DD029B1B680C93039B1B688F
:107DD0000B93039B0D9307E0039B1B680C93029B83
:107DE0001B680B93029B0D93019B5A680B9B0133FD
:107DF0009A420BDA0B9B01331946019802F0F8FD09
:107E00000590059B002B01D0059B6DE0019B1B6835
:107E100004930B9B5A1C019B1A60039BDB6809931C
:107E2000029BDB680893019BDB68079300230A939E
:107E3000002306931AE0099B1A1D09921A68089BF1
:107E4000191D08911B681A440A9B1A44079B1A6063
:107E5000079B1B681B0F0A93079B1A1D07921A6842
:107E600022F070421A60069B01330693069A0C9B1F
:107E70009A42E0DB0C9A0B9B9A4218D11BE00D9BB7
:107E8000DA68069B9B0013441A680A9B1A44079BF6
:107E90001A60079B1B681B0F0A93079B1A1D07920A
:107EA0001A6822F070421A60069B01330693069A04
:107EB0000B9B9A42E3DB079B1A1D07920A9A1A60F2
:107EC000019B1B68069307E0079B1A1D079200227F
:107ED0001A60069B01330693069A049B9A42F3DBD1
:107EE000019802F065FE002318460FB05DF804FB10
:107EF00000B58FB0039002910192029B1B6808931A
:107F0000039B1B680793019B5A68079B9A4209DAF7
:107F10000799019802F06CFD0690069B002B01D09A
:107F2000069B68E0019BDB68002B02D16FF0020327
:107F300061E0019B1B680593019B079A1A60039BF4
:107F4000DB680C93029BDB680B93019BDB680A9355
:107F500000230D93002309931AE00C9B1A1D0C9229
:107F60001A680B9B191D0B911B68D21A0D9BD21A14
:107F70000A9B1A600A9B1B68DB0F0D930A9B1A1D54
:107F80000A921A6822F070421A60099B0133099321
:107F9000099A089B9A42E0DB15E00C9B1A1D0C9293
:107FA0001A680D9BD21A0A9B1A600A9B1B68DB0F8A
:107FB0000D930A9B1A1D0A921A6822F070421A60E9
:107FC000099B01330993099A079B9A42E5DB019BC0
:107FD0001B68099307E00A9B1A1D0A9200221A6087
:107FE000099B01330993099A059B9A42F3DB019897
:107FF00002F0DEFD002318460FB05DF804FB00BF61
:1080000000B589B0039002910192039B9B6806938F
:10801000029B9B680593069A059B9A4209D0019B97
:10802000069A9A60019A02990398FFF7C1FE079099
:1080300020E00299039803F0FBFC0346B3F1FF3FF5
:1080400009D0019B069A9A60019A02990398FFF75A
:108050004FFF07900EE0069B002B0CBF012300236F
:10806000DBB21A46019B9A60019A03990298FFF7C6
:108070003FFF0790079B184609B05DF804FB00BF5F
:1080800084B00190019B1B68002B01D1002331E0DB
:10809000019B1B68012B01D101232BE0019B1B6875
:1080A000012B26DD00230393039B02930FE0019B2A
:1080B000DA68039B9B0013441B686FF07042934285
:1080C00002D1029B01330293039B01330393019B73
:1080D0001A68039B9A42EADC019B1B68DA0F13447F
:1080E0005B101A46029B9A42D4BF01230023DBB2E5
:1080F00000E00023184604B0704700BF00000000F5
:1081000000B587B00190019B1B68002B01D10023B3
:1081100034E0019B1B68012B01D101232EE0019B60
:108120001B68012B29DD019802F01AFB0290012344
:108130000393012304931C2305931AE0019BDA683F
:10814000049B9B0013441A68039B1340002B01D12E
:10815000002313E0039B5B000393039BB3F1805F59
:1081600004D3049B0133049301230393059B013340
:108170000593059A029B9A42E0DB0123184607B05B
:108180005DF804FB0000000000000000000000009B
:1081900084B00190019B1B68012B01DC002317E0D8
:1081A000012303930EE0019BDA68039B9B001344B9
:1081B0001B686FF07042934201D0002308E0039BDC
:1081C00001330393019B1A68039B9A42EBDC012362
:1081D000184604B0704700BF000000000000000017
:1081E00000B597B0039002910192009300230A9387
:1081F0004FF400710020FDF733FB0A900A9B002B1F
:1082000002D16FF0010389E2029802F0A9FA0E9000
:108210000E9B072B02DC02230C9323E00E9B242BE6
:1082200002DC03230C931DE00E9B8C2B02DC042349
:108230000C9317E00E9BB3F5E17F02DC05230C9352
:1082400010E00E9BB3F5A36F02DA06230C9309E04E
:108250000E9B40F6C952934202DC07230C9301E0C7
:1082600008230C930C9B052B01DD05230C930A9B23
:1082700003F11002019B5B681946104601F068F893
:108280001490149B002B04D00A98FDF7F9FA149B64
:1082900044E20C9B013B012202FA03F30E932FE010
:1082A0000E9B1B010A9A1A44019B5B6819461046F3
:1082B00001F04EF81490149B002B1ED00C9B013B38
:1082C000012202FA03F30D9309E00D9B1B010A9AA8
:1082D0001344184602F0ACF90D9B01330D930D9A2F
:1082E0000E9B9A42F1DB0A9B1033184602F0A0F96C
:1082F0000A98FDF7C5FA149B10E20E9B01330E930A
:1083000001220C9B9A400E9B9A42C9DC189B002BC1
:108310001AD105AB1946019800F00AFA1490149B83
:10832000002B40F0DB81019B1B685B000133B3F540
:10833000007F06DA019B1B68FF2B02DC994B0B9335
:1083400019E0994B0B9316E0189B012B07D105AB55
:108350001946019800F02CFC944B0B930BE005ABF5
:108360001946019800F01CFD1490149B002B40F05E
:10837000B5818F4B0B93019B5A6806AB114618468B
:1083800000F0E6FF1490149B002B40F0A781189B8F
:10839000002B16D106AB0199184601F091FB149001
:1083A000149B002B40F096810A9B103306A9019A7A
:1083B000039800F00DFE1490149B002B40F08A816E
:1083C00015E006AB0121184603F0E2FB1490149B64
:1083D000002B40F07F810A9B10331A4601990398C5
:1083E00003F0FEFB1490149B002B40F073810A9B5A
:1083F00003F110000C9B013B102202FA03F30A9ACE
:108400001344194602F08CFA1490149B002B40F090
:10841000618100230E9328E00C9B013B102202FA9D
:1084200003F30A9AD0180C9B013B102202FA03F3C3
:108430000A9A1344194600F0FBFD1490149B002B7C
:1084400040F048810C9B013B102202FA03F30A9A88
:10845000D018059A0B9B019998471490149B002BF8
:1084600040F038810E9B01330E930C9B5A1E0E9BDD
:108470009A42D1DC0C9B013B012202FA03F3013347
:108480000E9325E00E9B03F18053013B1B010A9ADA
:10849000D0180A9B03F110010E9B1B010A9A13448A
:1084A0001A4600F0EDFD1490149B002B40F0128151
:1084B0000E9B1B010A9AD018059A0B9B01999847AD
:1084C0001490149B002B40F005810E9B01330E93FA
:1084D00001220C9B9A400E9B9A42D3DC00231093FE
:1084E0000123119300231593029B1B68013B0F93FB
:1084F0000023129300231393119B013B1193119BB3
:10850000002B0FD10F9BB3F1FF3F00F08D80029B3A
:10851000DA680F9B591E0F919B0013441B6815933B
:108520001C231193159BDB0E03F001030D93159B88
:108530005B001593109B002B02D10D9B002B71D07B
:10854000109B012B18D10D9B002B15D106AA06AB51
:108550001146184600F06CFD1490149B002B40F05F
:10856000B980059A06A80B9B019998471490149B13
:10857000002B40F0AF80BFE7129B013312930C9A9F
:10858000129BD31A0D9A02FA03F3139A134313930F
:1085900002231093129A0C9B9A42ADD100230E93A2
:1085A0001FE000BFB1870008318A0008D18B0008A6
:1085B000018D000806AA06AB1146184600F038FDEA
:1085C0001490149B002B40F08580059A06A80B9B05
:1085D000019998471490149B002B7BD10E9B01337B
:1085E0000E930E9A0C9B9A42E4DB139B1B010A9A92
:1085F000D11806AA06AB184600F042FD1490149B51
:10860000002B67D1059A06A80B9B019998471490F7
:10861000149B002B5ED1002312930023139301239C
:10862000109369E700BF67E7109B022B3FD1129BB5
:10863000002B3CDD00230E9335E006AA06AB114665
:10864000184600F0F5FC1490149B002B42D1059ABB
:1086500006A80B9B019998471490149B002B39D1C5
:10866000139B5B001393139A0C9B42FA03F303F0E2
:108670000103002B14D00A9B03F1100106AA06ABDC
:10868000184600F0FDFC1490149B002B22D1059A93
:1086900006A80B9B019998471490149B002B19D1A5
:1086A0000E9B01330E930E9A129B9A42C5DB189BC8
:1086B000002B08D1059A06A80B9B019998471490A6
:1086C000149B002B06D106AB0099184602F098FACD
:1086D0000023149306AB184601F0AAFF0A9B10333F
:1086E000184601F0A5FF0C9B013B012202FA03F39F
:1086F0000E9309E00E9B1B010A9A1344184601F0E1
:1087000097FF0E9B01330E9301220C9B9A400E9B08
:108710009A42EFDC0A98FDF7B3F8149B184617B09D
:108720005DF804FB000000000000000000000000F5
:1087300084B001900091019BDB681B680393039B4D
:1087400003F00103002B02D16FF002032CE0039B26
:1087500002335B0003F00802039B13440293039B64
:10876000029A02FB03F3C3F10202029B02FB03F332
:108770000293039B029A02FB03F3C3F10202029BE2
:1087800002FB03F30293039B029A02FB03F3C3F180
:108790000202029B02FB03F30293029B5B4223F063
:1087A0007042009B1A600023184604B0704700BF57
:1087B0002DE9F04393B0039002910192039B1B6853
:1087C0000893039B5A68029B1B6801339A420CDA98
:1087D000029B1B6801331946039802F009F90790C0
:1087E000079B002B01D0079B1EE14FF48051002016
:1087F000FDF736F80690069B002B02D16FF00103BF
:1088000012E1069B1093039BDB680F9300231193E7
:108810000FE0109901F1080310930F9B1A1D0F929E
:108820001B681A464FF00003C1E90023119B013376
:108830001193039B1A68119B9A42EADC0CE0109B8F
:1088400003F1080210924FF000014FF00002C3E95B
:108850000012119B01331193029B1B685B005A1C91
:10886000119B9A42EBDC0023119361E0119BDB002A
:10887000069A1344D3E90023134623F07043019A68
:1088800002FB03F323F070430593029BDB680D9317
:10889000119BDB00069A13440C9300230E9323E0F4
:1088A000059B18464FF000010D9B1A1D0D921B6889
:1088B0001A464FF0000302FB01FC00FB03FEE644F6
:1088C000A0FB02230EEB03010B460C9901F10800FB
:1088D0000C90D1E9008912EB080243EB0903C1E9CE
:1088E00000230E9B01330E93029B1A680E9B9A4243
:1088F000D6DC119B0133DB00069A02EB030E119BC1
:108900000133DB00069A1344D3E90001119BDB001D
:10891000069A1344D3E90023160F46EA03161F0FE5
:10892000821941EB0703CEE90023119B0133119318
:10893000029B1A68119B9A4298DC119BDB00069AF5
:1089400013440993119B01331193119BDB00069A89
:1089500013440A9317E0099B03F108020992D3E933
:108960000023140F44EA03141D0F0A9B03F10802AD
:108970000A92D3E90012091942EB0502C3E9001279
:10898000119B01331193029B1B685B005A1C119BC6
:108990009A42E0DA039BDB680B93029B1B68DB00C7
:1089A000069A13440A93002311930FE00B9B1A1DA0
:1089B0000B920A9A02F108010A91D2E900120A46C2
:1089C00022F070421A60119B01331193029B1B68C5
:1089D0005A1C119B9A42E9DC07E00B9B1A1D0B9273
:1089E00000221A60119B01331193119A089B9A423D
:1089F000F3DB029B1B685A1C039B1A60039802F06E
:108A0000D7F80698FCF73CFF0299039803F010F89A
:108A10000346B3F1FF3F06D0039A02990398FFF78C
:108A200067FA034600E00023184613B0BDE8F08360
:108A3000F0B58FB0039002910192029B1B685B001E
:108A400001330893089BB3F5007F0ADA029B1B6889
:108A5000FF2B06DC019A02990398FFF7A9FE034653
:108A6000A0E0039B5A68089B9A4209DA0899039888
:108A700001F0BEFF0790079B002B01D0079B91E000
:108A8000039B089A1A6000230D936DE0039BDA683C
:108A90000D9B9B0013441B68019A02FB03F323F018
:108AA00070430693029BDB680B93039BDA680D9B74
:108AB0009B0013440A930023099300230C9336E090
:108AC000069B18464FF000010B9B1A1D0B921B686A
:108AD0001A464FF0000302FB01F700FB03F63E4489
:108AE000A0FB0223F1180B46099908464FF000013C
:108AF000801841EB03010A9B1B681A464FF00003E4
:108B0000121843EB0103CDE90423DDE90423140F1C
:108B100044EA03141D0F234609930A9B1A1D0A9267
:108B2000049A22F070421A600C9B01330C93029B52
:108B30001A680C9B9A42C3DC10E00A9B1A68099BD6
:108B40001A440A9B1A600A9B1B681B0F09930A9B15
:108B50001A1D0A921A6822F070421A60099B002BB3
:108B6000EBD10D9B01330D93029B1A680D9B9A422A
:108B70008CDC039802F01CF8029B1B6819460398D2
:108B800002F0A6F80299039802F052FF0346B3F1EF
:108B9000FF3F06D0039A02990398FFF7A9F903460D
:108BA00000E0002318460FB0F0BD00BF0000000039
:108BB00082B001900091019BDB681B68C3F1805279
:108BC000009B1A6002B07047000000000000000027
:108BD000F0B58DB0039002910192029B1B68079340
:108BE000039B5A680799079B0B449A420CDA079A31
:108BF000079B13441946039801F0FAFE0690069B62
:108C0000002B01D0069B75E0039BDB680993039B57
:108C1000DA68079B9B001344089300230A93002300
:108C20000B9336E0089B1A1D08921B6818464FF0FC
:108C30000001019B1A464FF0000302FB01F700FB05
:108C400003F63E44A0FB0223F1180B46099909687C
:108C500008464FF00001801841EB03010A9B1A46B9
:108C60004FF00003121843EB0103CDE90423099BE5
:108C70001A1D0992049A22F070421A60DDE9042359
:108C8000140F44EA03141D0F23460A930B9B013370
:108C90000B930B9A079B9A42C4DB099B1A1D0992FE
:108CA0000A9A1A60079B01330B9307E0099B1A1D70
:108CB000099200221A600B9B01330B93039B1A68E5
:108CC0000B9B9A42F2DC039801F072FF0299039821
:108CD00002F0AEFE0346B3F1FF3F0AD0039A0299B9
:108CE0000398FFF705F90690069B002B8CD0069B96
:108CF00000E0002318460DB0F0BD00BF00000000EA
:108D000000B58BB003900291019204AB184601F0BC
:108D100077FC0990099B002B01D0099B3AE002984F
:108D200001F01EFD089004AA039B0899039801F026
:108D30009FFE0990099B002B27D1019B012B09D095
:108D400004AA04AB0199184600F0C2F80990099BE7
:108D5000002B1AD104AB039A19460398FFF728F8A1
:108D60000990099B002B10D10299039802F060FE34
:108D70000346B3F1FF3F08D0039A02990398FFF727
:108D8000B7F80990099B002BCDD004AB184601F031
:108D90004FFC099B18460BB05DF804FB0000000077
:108DA00000B589B00190009102AB184601F028FC93
:108DB0000790079B002B01D0079B2BE0019801F047
:108DC000CFFC069002AB0699184600F071F80790A8
:108DD000079B002B05D002AB184601F029FC079B2E
:108DE00018E002AA02AB01991846FFF781F8079034
:108DF000079B002B05D002AB184601F019FC079B1E
:108E000008E0059B1A68009B1A6002AB184601F047
:108E10000FFC0023184609B05DF804FB00000000B9
:108E200010B584B001900091009B1F4A82FB031291
:108E30001A441211DB17D31A0393019B1A68039B80
:108E400001339A420FDA039B01331946019801F06E
:108E5000CFFD0290029B002B01D0029B20E0039BE0
:108E60005A1C019B1A60019BDA68039B9B00D01877
:108E7000019BDA68039B9B0013441C68009A0A4B11
:108E800083FB021313441911D317C91A0B46DB00D5
:108E90005B1A9B00D11A01238B40234303600023FC
:108EA000184604B010BD00BF932449920000000092
:108EB00000B583B001900091019801F059FE00992E
:108EC0000198FFF7ADFF0346184603B05DF804FBB9
:108ED000F0B58DB0039002910192019B5A68039BFB
:108EE0001B6801339A420CDA039B1B680133194655
:108EF000019801F07DFD0790079B002B01D0079B97
:108F000063E0019B1B680693039B9A68019B9A6030
:108F1000039BDB680A93019BDB68099300230B9397
:108F2000002308932FE00B9B1E464FF000070A9B7F
:108F30001A1D0A921B6818464FF00001029B1A4640
:108F40004FF0000302FB01FC00FB03FEE644A0FB24
:108F500002230EEB03010B46921943EB0703CDE905
:108F60000423099B1A1D0992049A22F070421A6088
:108F7000DDE90423140F44EA03141D0F23460B9369
:108F8000089B01330893039B1A68089B9A42CADC2A
:108F9000099B1A1D09920B9A1A60089B01330893CA
:108FA00004E0099B1A1D099200221A60089B5A1CB2
:108FB0000892069A9342F4DB039B1B685A1C019BA0
:108FC0001A60019801F0F4FD002318460DB0F0BDC1
:108FD00000B58BB00390029101920093019B1A6837
:108FE00005AB1146184600F0B3F90990099B002B18
:108FF00001D0099B15E005AB1A460299039800F0D1
:109000003FF80990099B002B06D105AB009A019906
:10901000184602F0E5FD099005AB184601F008FB83
:10902000099B18460BB05DF804FB00BF0000000070
:1090300000B585B001900091019B1B685B00013376
:10904000B3F5007F09DA019B1B687F2B05DC0099D3
:10905000019800F0B5F9039004E00099019800F040
:1090600097FB0390009B00229A60039B184605B073
:109070005DF804FB0000000000000000000000009C
:1090800000B589B0039002910192039B9A68029BFC
:109090009B689A4214BF01230023DBB20693039B13
:1090A0001A68029B1B68134401330593059BB3F5B3
:1090B000007F11DA029B1A68039B1B689342A8BFCA
:1090C0001346B3F5807F07DC059B019A029903984C
:1090D00000F08EFA07900BE0039B1A68029B1B6856
:1090E00013440133019A0299039800F041FC079060
:1090F000019B1B68002B01DD069B00E00023019A09
:109100009360079B184609B05DF804FB000000005F
:1091100000B58BB001900091009B5A68019B1B68C1
:1091200001339A420CDA019B1B68013319460098FF
:1091300001F05EFC0590059B002B01D0059B53E0E0
:10914000009B1B680493019B1A68009B1A60019B9B
:10915000DB680793009BDB680693002308930023DA
:10916000099315E0079B1B68DB0E0393069B1A1DF2
:109170000692079A111D079112685100089A0A4336
:1091800022F070421A60039B0893099B01330993F4
:10919000019B1A68099B9A42E4DC089B002B07D0CC
:1091A000069B01221A60009B1B685A1C009B1A60D8
:1091B000009BDA68009B1B689B0013440693009B8E
:1091C0001B68099307E0069B1A1D069200221A608D
:1091D000099B01330993099A049B9A42F3DB019B93
:1091E0009A68009B9A60002318460BB05DF804FB58
:1091F0002DE9F04190B0039002910192524B0A93F5
:10920000039B1A6805AB1146184600F0A1F80990B7
:10921000099B002B01D0099B92E0039B1B680593DF
:10922000039B9B6807934FF000034FF00004CDE9C8
:109230000E34039B1B68013B0B9367E0DDE90E34A2
:10924000260746EA13161D07039BDA680B9B9B0053
:1092500013441B684FF0000443EA050344EA060484
:10926000CDE90E34DDE90E34002C08BF032B3ED3CC
:109270000A9B4FF000040E9A04FB02F10F9A03FBC5
:1092800002F20A440E99A1FB0334224414461F0F34
:1092900047EA04174FEA1478CDE90C78DDE90C129F
:1092A000DDE90C34C91842EB0402DDE90C345B182B
:1092B00044EB0204DDE90E12CB1A62EB0404CDE9A3
:1092C0000E340DE0DDE90C34013344F10004CDE946
:1092D0000C34DDE90E34033B44F1FF34CDE90E34A8
:1092E000DDE90E34002C08BF032BEBD205E04FF074
:1092F00000034FF00004CDE90C34089A0B9B9B004F
:1093000013440C9A1A600B9B013B0B930B9B002B95
:1093100094DA019B002B02D00E9A019B1A60029BEB
:10932000002B08D005AB184601F042FC05AB0299B2
:10933000184601F065FC05AB184601F079F9099B68
:10934000184610B0BDE8F0815555550500000000E5
:1093500000B585B001900091009B02330093009B03
:109360009B0019460020FCF77BFA0246019BDA605D
:10937000019BDB68002B02D16FF001031AE0019B17
:1093800000221A60019B009A5A60019B00229A6099
:109390000023039309E0019BDA68039B9B001344BD
:1093A00000221A60039B01330393039A009B9A42A5
:1093B000F1DB0023184605B05DF804FB0000000057
:1093C000F0B595B001900091019B1A68019B1B6854
:1093D00013440993009B5A68099B9A4209DA099938
:1093E000009801F005FB0890089B002B01D0089B1A
:1093F000FAE0099BB3F5007F02DD6FF00303F3E0B1
:109400004FF400610020FCF72BFA0790079B002B1C
:1094100002D16FF00103E7E04FF000024FF00003CC
:10942000CDE90E2300231393A3E04FF000024FF089
:109430000003CDE90C23019B1B685A1E139B93422A
:10944000A8BF13460693139A069BD31A0593019B54
:10945000DA68059B9B0013441193019BDA68069B15
:109460009B0013440B93069B5A1C019B1968059B98
:10947000CB1A9342A8BF13460493069A059BD31AAE
:1094800001335B10049A9342A8BF13460493002350
:10949000129320E0119B1A1D11921B6818464FF081
:1094A00000010B9B1A1F0B921B681A464FF000031A
:1094B00002FB01F700FB03F63E44A0FB0223F11878
:1094C0000B46DDE90C01121843EB0103CDE90C2337
:1094D000129B01331293129A049B9A42DADBDDE964
:1094E0000C01DDE90C23801841EB0301DDE90E23BB
:1094F000121843EB0103CDE90C23139B03F0010386
:10950000002B23D1019BDA68139B5B109B00134453
:109510001B6818464FF00001019BDA68139B5B1033
:109520009B0013441B681A464FF0000302FB01F72F
:1095300000FB03F63E44A0FB0223F1180B46DDE9D5
:109540000C01121843EB0103CDE90C23139B9B0084
:10955000079A13440C9A22F070421A60DDE90C233A
:10956000140F44EA03141D0FCDE90E45139B01337C
:109570001393139A099B9A42FFF657AF009B1B68FF
:109580000393019B1A68019B1B681A44009B1A6095
:10959000009BDB680A93002313930DE00A9B1A1DBE
:1095A0000A92139A920007990A44126822F07042B4
:1095B0001A60139B01331393139A099B9A42EDDBB4
:1095C00007E00A9B1A1D0A9200221A60139B0133BE
:1095D0001393139A039B9A42F3DB009801F0E8FA85
:1095E0000798FCF74DF90023184615B0F0BD00BFF1
:1095F000F0B593B00390029101920093019B5A68D9
:10960000009B9A4209DA0099019801F0F1F90A9059
:109610000A9B002B01D00A9BB6E0039B1A68029BB1
:109620001B681A44009B9342A8BF13460993099BE9
:10963000B3F5007F02DD6FF00303A5E04FF4006196
:109640000020FCF70DF90890089B002B02D16FF069
:10965000010399E04FF000024FF00003CDE90E2323
:10966000002311935CE0029B1B685A1E119B9342DE
:10967000A8BF13460793119A079BD31A0693039B1F
:10968000DA68069B9B0013440D93029BDA68079BE4
:109690009B0013440C93079B5A1C039B1968069B61
:1096A000CB1A9342A8BF134605930023109320E0E2
:1096B0000D9B1A1D0D921B6818464FF000010C9B64
:1096C0001A1F0C921B681A464FF0000302FB01F7A9
:1096D00000FB03F63E44A0FB0223F1180B46DDE934
:1096E0000E01121843EB0103CDE90E23109B013349
:1096F0001093109A059B9A42DADB119B9B00089A03
:1097000013440E9A22F070421A60DDE90E23140F02
:1097100044EA03141D0FCDE90E45119B013311934B
:10972000119A099B9A429EDB019B1B680493019B43
:10973000099A1A60019BDB680B93002311930BE0DD
:109740000B9B1A1D0B92119A920008990A441268F9
:109750001A60119B01331193119A099B9A42EFDB16
:1097600007E00B9B1A1D0B9200221A60119B01331C
:109770001193119A049B9A42F3DB019801F018FAB5
:109780000898FCF77DF80023184613B0F0BD00BF21
:109790002DE9F04F91B001900091019B1B680B9354
:1097A0000B9B5B005A1C03AB11461846FFF7D0FD1C
:1097B0000A900A9B002B01D00A9BD3E00B9B5B0015
:1097C0000133039300230F93B9E0069B0F9AD20055
:1097D00013441B689A464FF0000B019BDA680F9BFD
:1097E0009B0013441B6818464FF00001019BDA6888
:1097F0000F9B9B0013441B681A464FF0000302FBAB
:1098000001FC00FB03FEE644A0FB02230EEB030178
:109810000B4612EB0A0243EB0B03CDE90823069A31
:109820000F9BDB001344089A22F070421A60DDE9B6
:109830000823140F44EA03141D0F23460D93019BC4
:10984000DA680F9B9B0013441B680793069A0F9BD3
:10985000DB00043313440C930F9B01330E9344E05D
:10986000079B18464FF00001019BDA680E9B9B0096
:1098700013441B681A464FF0000302FB01FC00FB77
:1098800003FEE644A0FB02230EEB03010B46CDE9E9
:109890000823CDE908230C9B1B6818464FF00001F4
:1098A000DDE90823801841EB0301DDE90823801876
:1098B00041EB03010D9B1A464FF00003121843EBD6
:1098C0000103CDE908230C9B1A1D0C92089A22F083
:1098D00070421A60DDE90823160F46EA03161F0FCF
:1098E00033460D930E9B01330E930E9A0B9B9A42B7
:1098F000B6DB1EE00C9B1B6818464FF000010D9B69
:109900001A464FF00003121843EB0103CDE9082378
:109910000C9B1A1D0C92089A22F070421A60DDE925
:1099200008234FEA127848EA03184FEA13794346AE
:109930000D930D9B002BDDD10F9B01330F930F9ADD
:109940000B9B9A42FFF641AF03AB184601F030F98A
:1099500003AB0099184601F053F903AB184600F029
:1099600067FE0023184611B0BDE8F08F000000002C
:10997000F0B595B00390029101920093009BB3F56E
:10998000007F10DA029B1A68039B1B689342A8BFF2
:109990001346FF2B07DC009B019A02990398FFF7FF
:1099A00027FE034689E004AB00991846FFF7D0FC78
:1099B0000E900E9B002B01D00E9B7EE0009B04932B
:1099C000039B1B680D930023139364E00023119302
:1099D000009A139BD21A029B1B689342A8BF13469E
:1099E0000C93039BDA68139B9B0013441B680B9337
:1099F000079A139B9B0013441093029BDB680F9301
:109A00000023129337E0109B1B681E464FF000079F
:109A10000B9B18464FF000010F9B1A1D0F921B68FD
:109A20001A464FF0000302FB01FC00FB03FEE64474
:109A3000A0FB02230EEB03010B46B01847EB03011A
:109A4000119B1A464FF00003121843EB0103CDE9B6
:109A50000823109B1A1D1092089A22F070421A6077
:109A6000DDE90823140F44EA03141D0F2346119364
:109A7000129B01331293129A0C9B9A42C3DB139AE6
:109A8000129B1A44009B9A4202DA109B119A1A60A8
:109A9000139B01331393139A0D9B9A4296DB04ABED
:109AA000184601F085F804AB0199184601F0A8F8B2
:109AB00004AB184600F0BCFD0023184615B0F0BDFD
:109AC00000B587B001900091009800F049FE024671
:109AD0002E4B83FB021313441911D317C91A0B46DB
